{
  "contractName": "BuyableERC721",
  "abi": [
    {
      "inputs": [
        {
          "internalType": "string",
          "name": "name_",
          "type": "string"
        },
        {
          "internalType": "string",
          "name": "symbol_",
          "type": "string"
        },
        {
          "internalType": "uint256",
          "name": "maxSupply_",
          "type": "uint256"
        }
      ],
      "stateMutability": "nonpayable",
      "type": "constructor"
    },
    {
      "anonymous": false,
      "inputs": [
        {
          "indexed": true,
          "internalType": "address",
          "name": "owner",
          "type": "address"
        },
        {
          "indexed": true,
          "internalType": "address",
          "name": "approved",
          "type": "address"
        },
        {
          "indexed": true,
          "internalType": "uint256",
          "name": "tokenId",
          "type": "uint256"
        }
      ],
      "name": "Approval",
      "type": "event"
    },
    {
      "anonymous": false,
      "inputs": [
        {
          "indexed": true,
          "internalType": "address",
          "name": "owner",
          "type": "address"
        },
        {
          "indexed": true,
          "internalType": "address",
          "name": "operator",
          "type": "address"
        },
        {
          "indexed": false,
          "internalType": "bool",
          "name": "approved",
          "type": "bool"
        }
      ],
      "name": "ApprovalForAll",
      "type": "event"
    },
    {
      "anonymous": false,
      "inputs": [
        {
          "indexed": true,
          "internalType": "address",
          "name": "previousOwner",
          "type": "address"
        },
        {
          "indexed": true,
          "internalType": "address",
          "name": "newOwner",
          "type": "address"
        }
      ],
      "name": "OwnershipTransferred",
      "type": "event"
    },
    {
      "anonymous": false,
      "inputs": [
        {
          "indexed": false,
          "internalType": "address",
          "name": "account",
          "type": "address"
        }
      ],
      "name": "Paused",
      "type": "event"
    },
    {
      "anonymous": false,
      "inputs": [
        {
          "indexed": true,
          "internalType": "address",
          "name": "from",
          "type": "address"
        },
        {
          "indexed": true,
          "internalType": "address",
          "name": "to",
          "type": "address"
        },
        {
          "indexed": true,
          "internalType": "uint256",
          "name": "tokenId",
          "type": "uint256"
        }
      ],
      "name": "Transfer",
      "type": "event"
    },
    {
      "anonymous": false,
      "inputs": [
        {
          "indexed": false,
          "internalType": "address",
          "name": "account",
          "type": "address"
        }
      ],
      "name": "Unpaused",
      "type": "event"
    },
    {
      "stateMutability": "payable",
      "type": "fallback",
      "payable": true
    },
    {
      "inputs": [
        {
          "internalType": "address",
          "name": "to",
          "type": "address"
        },
        {
          "internalType": "uint256",
          "name": "tokenId",
          "type": "uint256"
        }
      ],
      "name": "approve",
      "outputs": [],
      "stateMutability": "nonpayable",
      "type": "function"
    },
    {
      "inputs": [
        {
          "internalType": "address",
          "name": "owner",
          "type": "address"
        }
      ],
      "name": "balanceOf",
      "outputs": [
        {
          "internalType": "uint256",
          "name": "",
          "type": "uint256"
        }
      ],
      "stateMutability": "view",
      "type": "function",
      "constant": true
    },
    {
      "inputs": [],
      "name": "basePrice",
      "outputs": [
        {
          "internalType": "uint256",
          "name": "",
          "type": "uint256"
        }
      ],
      "stateMutability": "view",
      "type": "function",
      "constant": true
    },
    {
      "inputs": [],
      "name": "baseURI",
      "outputs": [
        {
          "internalType": "string",
          "name": "",
          "type": "string"
        }
      ],
      "stateMutability": "view",
      "type": "function",
      "constant": true
    },
    {
      "inputs": [],
      "name": "burnCount",
      "outputs": [
        {
          "internalType": "uint256",
          "name": "",
          "type": "uint256"
        }
      ],
      "stateMutability": "view",
      "type": "function",
      "constant": true
    },
    {
      "inputs": [
        {
          "internalType": "uint256",
          "name": "tokenId",
          "type": "uint256"
        }
      ],
      "name": "getApproved",
      "outputs": [
        {
          "internalType": "address",
          "name": "",
          "type": "address"
        }
      ],
      "stateMutability": "view",
      "type": "function",
      "constant": true
    },
    {
      "inputs": [
        {
          "internalType": "address",
          "name": "owner",
          "type": "address"
        },
        {
          "internalType": "address",
          "name": "operator",
          "type": "address"
        }
      ],
      "name": "isApprovedForAll",
      "outputs": [
        {
          "internalType": "bool",
          "name": "",
          "type": "bool"
        }
      ],
      "stateMutability": "view",
      "type": "function",
      "constant": true
    },
    {
      "inputs": [],
      "name": "maxSupply",
      "outputs": [
        {
          "internalType": "uint256",
          "name": "",
          "type": "uint256"
        }
      ],
      "stateMutability": "view",
      "type": "function",
      "constant": true
    },
    {
      "inputs": [],
      "name": "mintCount",
      "outputs": [
        {
          "internalType": "uint256",
          "name": "",
          "type": "uint256"
        }
      ],
      "stateMutability": "view",
      "type": "function",
      "constant": true
    },
    {
      "inputs": [],
      "name": "name",
      "outputs": [
        {
          "internalType": "string",
          "name": "",
          "type": "string"
        }
      ],
      "stateMutability": "view",
      "type": "function",
      "constant": true
    },
    {
      "inputs": [],
      "name": "owner",
      "outputs": [
        {
          "internalType": "address",
          "name": "",
          "type": "address"
        }
      ],
      "stateMutability": "view",
      "type": "function",
      "constant": true
    },
    {
      "inputs": [
        {
          "internalType": "uint256",
          "name": "tokenId",
          "type": "uint256"
        }
      ],
      "name": "ownerOf",
      "outputs": [
        {
          "internalType": "address",
          "name": "",
          "type": "address"
        }
      ],
      "stateMutability": "view",
      "type": "function",
      "constant": true
    },
    {
      "inputs": [],
      "name": "paused",
      "outputs": [
        {
          "internalType": "bool",
          "name": "",
          "type": "bool"
        }
      ],
      "stateMutability": "view",
      "type": "function",
      "constant": true
    },
    {
      "inputs": [],
      "name": "renounceOwnership",
      "outputs": [],
      "stateMutability": "nonpayable",
      "type": "function"
    },
    {
      "inputs": [
        {
          "internalType": "address",
          "name": "from",
          "type": "address"
        },
        {
          "internalType": "address",
          "name": "to",
          "type": "address"
        },
        {
          "internalType": "uint256",
          "name": "tokenId",
          "type": "uint256"
        }
      ],
      "name": "safeTransferFrom",
      "outputs": [],
      "stateMutability": "nonpayable",
      "type": "function"
    },
    {
      "inputs": [
        {
          "internalType": "address",
          "name": "from",
          "type": "address"
        },
        {
          "internalType": "address",
          "name": "to",
          "type": "address"
        },
        {
          "internalType": "uint256",
          "name": "tokenId",
          "type": "uint256"
        },
        {
          "internalType": "bytes",
          "name": "_data",
          "type": "bytes"
        }
      ],
      "name": "safeTransferFrom",
      "outputs": [],
      "stateMutability": "nonpayable",
      "type": "function"
    },
    {
      "inputs": [
        {
          "internalType": "address",
          "name": "operator",
          "type": "address"
        },
        {
          "internalType": "bool",
          "name": "approved",
          "type": "bool"
        }
      ],
      "name": "setApprovalForAll",
      "outputs": [],
      "stateMutability": "nonpayable",
      "type": "function"
    },
    {
      "inputs": [
        {
          "internalType": "bytes4",
          "name": "interfaceId",
          "type": "bytes4"
        }
      ],
      "name": "supportsInterface",
      "outputs": [
        {
          "internalType": "bool",
          "name": "",
          "type": "bool"
        }
      ],
      "stateMutability": "view",
      "type": "function",
      "constant": true
    },
    {
      "inputs": [],
      "name": "symbol",
      "outputs": [
        {
          "internalType": "string",
          "name": "",
          "type": "string"
        }
      ],
      "stateMutability": "view",
      "type": "function",
      "constant": true
    },
    {
      "inputs": [
        {
          "internalType": "uint256",
          "name": "tokenId",
          "type": "uint256"
        }
      ],
      "name": "tokenURI",
      "outputs": [
        {
          "internalType": "string",
          "name": "",
          "type": "string"
        }
      ],
      "stateMutability": "view",
      "type": "function",
      "constant": true
    },
    {
      "inputs": [
        {
          "internalType": "address",
          "name": "from",
          "type": "address"
        },
        {
          "internalType": "address",
          "name": "to",
          "type": "address"
        },
        {
          "internalType": "uint256",
          "name": "tokenId",
          "type": "uint256"
        }
      ],
      "name": "transferFrom",
      "outputs": [],
      "stateMutability": "nonpayable",
      "type": "function"
    },
    {
      "inputs": [
        {
          "internalType": "address",
          "name": "newOwner",
          "type": "address"
        }
      ],
      "name": "transferOwnership",
      "outputs": [],
      "stateMutability": "nonpayable",
      "type": "function"
    },
    {
      "stateMutability": "payable",
      "type": "receive",
      "payable": true
    },
    {
      "inputs": [],
      "name": "togglePaused",
      "outputs": [],
      "stateMutability": "nonpayable",
      "type": "function"
    },
    {
      "inputs": [],
      "name": "mint",
      "outputs": [],
      "stateMutability": "payable",
      "type": "function",
      "payable": true
    },
    {
      "inputs": [
        {
          "internalType": "bytes",
          "name": "data",
          "type": "bytes"
        }
      ],
      "name": "mint",
      "outputs": [],
      "stateMutability": "payable",
      "type": "function",
      "payable": true
    },
    {
      "inputs": [
        {
          "internalType": "uint256",
          "name": "tokenId",
          "type": "uint256"
        }
      ],
      "name": "burn",
      "outputs": [],
      "stateMutability": "nonpayable",
      "type": "function"
    },
    {
      "inputs": [
        {
          "internalType": "uint256",
          "name": "newBasePrice",
          "type": "uint256"
        }
      ],
      "name": "setBasePrice",
      "outputs": [],
      "stateMutability": "nonpayable",
      "type": "function"
    },
    {
      "inputs": [
        {
          "internalType": "string",
          "name": "newBaseURI",
          "type": "string"
        }
      ],
      "name": "setBaseURI",
      "outputs": [],
      "stateMutability": "nonpayable",
      "type": "function"
    }
  ],
  "bytecode": "0x6080604052670de0b6b3a7640000600a553480156200001d57600080fd5b50604051620040a3380380620040a38339818101604052810190620000439190620002d4565b82826200006562000059620000c360201b60201c565b620000cb60201b60201c565b60008060146101000a81548160ff0219169083151502179055508160019080519060200190620000979291906200018f565b508060029080519060200190620000b09291906200018f565b5050508060098190555050505062000516565b600033905090565b60008060009054906101000a900473ffffffffffffffffffffffffffffffffffffffff169050816000806101000a81548173ffffffffffffffffffffffffffffffffffffffff021916908373ffffffffffffffffffffffffffffffffffffffff1602179055508173ffffffffffffffffffffffffffffffffffffffff168173ffffffffffffffffffffffffffffffffffffffff167f8be0079c531659141344cd1fd0a4f28419497f9722a3daafe3b4186f6b6457e060405160405180910390a35050565b8280546200019d906200040d565b90600052602060002090601f016020900481019282620001c157600085556200020d565b82601f10620001dc57805160ff19168380011785556200020d565b828001600101855582156200020d579182015b828111156200020c578251825591602001919060010190620001ef565b5b5090506200021c919062000220565b5090565b5b808211156200023b57600081600090555060010162000221565b5090565b600062000256620002508462000397565b6200036e565b905082815260208101848484011115620002755762000274620004dc565b5b62000282848285620003d7565b509392505050565b600082601f830112620002a257620002a1620004d7565b5b8151620002b48482602086016200023f565b91505092915050565b600081519050620002ce81620004fc565b92915050565b600080600060608486031215620002f057620002ef620004e6565b5b600084015167ffffffffffffffff811115620003115762000310620004e1565b5b6200031f868287016200028a565b935050602084015167ffffffffffffffff811115620003435762000342620004e1565b5b62000351868287016200028a565b92505060406200036486828701620002bd565b9150509250925092565b60006200037a6200038d565b905062000388828262000443565b919050565b6000604051905090565b600067ffffffffffffffff821115620003b557620003b4620004a8565b5b620003c082620004eb565b9050602081019050919050565b6000819050919050565b60005b83811015620003f7578082015181840152602081019050620003da565b8381111562000407576000848401525b50505050565b600060028204905060018216806200042657607f821691505b602082108114156200043d576200043c62000479565b5b50919050565b6200044e82620004eb565b810181811067ffffffffffffffff8211171562000470576200046f620004a8565b5b80604052505050565b7f4e487b7100000000000000000000000000000000000000000000000000000000600052602260045260246000fd5b7f4e487b7100000000000000000000000000000000000000000000000000000000600052604160045260246000fd5b600080fd5b600080fd5b600080fd5b600080fd5b6000601f19601f8301169050919050565b6200050781620003cd565b81146200051357600080fd5b50565b613b7d80620005266000396000f3fe6080604052600436106101bb5760003560e01c806370a08231116100ec578063b88d4fde1161008a578063d5abeb0111610064578063d5abeb01146105c0578063de4b3262146105eb578063e985e9c514610614578063f2fde38b14610651576101c2565b8063b88d4fde1461052f578063c7876ea414610558578063c87b56dd14610583576101c2565b80638da5cb5b116100c65780638da5cb5b1461048557806395d89b41146104b05780639659867e146104db578063a22cb46514610506576101c2565b806370a0823114610415578063715018a6146104525780637ba0e2e714610469576101c2565b806342842e0e1161015957806355f804b31161013357806355f804b3146103595780635c975abb146103825780636352211e146103ad5780636c0360eb146103ea576101c2565b806342842e0e146102dc57806342966c6814610305578063524773ce1461032e576101c2565b8063095ea7b311610195578063095ea7b3146102695780631249c58b1461029257806323b872dd1461029c57806336566f06146102c5576101c2565b806301ffc9a7146101c457806306fdde0314610201578063081812fc1461022c576101c2565b366101c257005b005b3480156101d057600080fd5b506101eb60048036038101906101e6919061290d565b61067a565b6040516101f89190612e98565b60405180910390f35b34801561020d57600080fd5b5061021661075c565b6040516102239190612eb3565b60405180910390f35b34801561023857600080fd5b50610253600480360381019061024e91906129f9565b6107ee565b6040516102609190612e31565b60405180910390f35b34801561027557600080fd5b50610290600480360381019061028b91906128cd565b610873565b005b61029a61098b565b005b3480156102a857600080fd5b506102c360048036038101906102be91906127b7565b610adc565b005b3480156102d157600080fd5b506102da610b3c565b005b3480156102e857600080fd5b5061030360048036038101906102fe91906127b7565b610bdd565b005b34801561031157600080fd5b5061032c600480360381019061032791906129f9565b610bfd565b005b34801561033a57600080fd5b50610343610ca1565b6040516103509190613175565b60405180910390f35b34801561036557600080fd5b50610380600480360381019061037b91906129b0565b610ca7565b005b34801561038e57600080fd5b50610397610d3d565b6040516103a49190612e98565b60405180910390f35b3480156103b957600080fd5b506103d460048036038101906103cf91906129f9565b610d53565b6040516103e19190612e31565b60405180910390f35b3480156103f657600080fd5b506103ff610e05565b60405161040c9190612eb3565b60405180910390f35b34801561042157600080fd5b5061043c6004803603810190610437919061274a565b610e93565b6040516104499190613175565b60405180910390f35b34801561045e57600080fd5b50610467610f4b565b005b610483600480360381019061047e9190612967565b610fd3565b005b34801561049157600080fd5b5061049a611126565b6040516104a79190612e31565b60405180910390f35b3480156104bc57600080fd5b506104c561114f565b6040516104d29190612eb3565b60405180910390f35b3480156104e757600080fd5b506104f06111e1565b6040516104fd9190613175565b60405180910390f35b34801561051257600080fd5b5061052d6004803603810190610528919061288d565b6111e7565b005b34801561053b57600080fd5b506105566004803603810190610551919061280a565b611368565b005b34801561056457600080fd5b5061056d6113ca565b60405161057a9190613175565b60405180910390f35b34801561058f57600080fd5b506105aa60048036038101906105a591906129f9565b6113d0565b6040516105b79190612eb3565b60405180910390f35b3480156105cc57600080fd5b506105d5611477565b6040516105e29190613175565b60405180910390f35b3480156105f757600080fd5b50610612600480360381019061060d91906129f9565b61147d565b005b34801561062057600080fd5b5061063b60048036038101906106369190612777565b611503565b6040516106489190612e98565b60405180910390f35b34801561065d57600080fd5b506106786004803603810190610673919061274a565b611597565b005b60007f80ac58cd000000000000000000000000000000000000000000000000000000007bffffffffffffffffffffffffffffffffffffffffffffffffffffffff1916827bffffffffffffffffffffffffffffffffffffffffffffffffffffffff1916148061074557507f5b5e139f000000000000000000000000000000000000000000000000000000007bffffffffffffffffffffffffffffffffffffffffffffffffffffffff1916827bffffffffffffffffffffffffffffffffffffffffffffffffffffffff1916145b8061075557506107548261168f565b5b9050919050565b60606001805461076b906133d6565b80601f0160208091040260200160405190810160405280929190818152602001828054610797906133d6565b80156107e45780601f106107b9576101008083540402835291602001916107e4565b820191906000526020600020905b8154815290600101906020018083116107c757829003601f168201915b5050505050905090565b60006107f9826116f9565b610838576040517f08c379a000000000000000000000000000000000000000000000000000000000815260040161082f90613055565b60405180910390fd5b6005600083815260200190815260200160002060009054906101000a900473ffffffffffffffffffffffffffffffffffffffff169050919050565b600061087e82610d53565b90508073ffffffffffffffffffffffffffffffffffffffff168373ffffffffffffffffffffffffffffffffffffffff1614156108ef576040517f08c379a00000000000000000000000000000000000000000000000000000000081526004016108e690613115565b60405180910390fd5b8073ffffffffffffffffffffffffffffffffffffffff1661090e611765565b73ffffffffffffffffffffffffffffffffffffffff16148061093d575061093c81610937611765565b611503565b5b61097c576040517f08c379a000000000000000000000000000000000000000000000000000000000815260040161097390612fd5565b60405180910390fd5b610986838361176d565b505050565b610993610d3d565b156109d3576040517f08c379a00000000000000000000000000000000000000000000000000000000081526004016109ca90612fb5565b60405180910390fd5b600a543414610a17576040517f08c379a0000000000000000000000000000000000000000000000000000000008152600401610a0e906130f5565b60405180910390fd5b600080610a22611126565b73ffffffffffffffffffffffffffffffffffffffff1634604051610a4590612e1c565b60006040518083038185875af1925050503d8060008114610a82576040519150601f19603f3d011682016040523d82523d6000602084013e610a87565b606091505b509150915081610acc576040517f08c379a0000000000000000000000000000000000000000000000000000000008152600401610ac390613135565b60405180910390fd5b610ad833600754611826565b5050565b610aed610ae7611765565b82611844565b610b2c576040517f08c379a0000000000000000000000000000000000000000000000000000000008152600401610b2390613155565b60405180910390fd5b610b37838383611922565b505050565b610b44611765565b73ffffffffffffffffffffffffffffffffffffffff16610b62611126565b73ffffffffffffffffffffffffffffffffffffffff1614610bb8576040517f08c379a0000000000000000000000000000000000000000000000000000000008152600401610baf90613075565b60405180910390fd5b610bc0610d3d565b15610bd257610bcd611b7e565b610bdb565b610bda611c1f565b5b565b610bf883838360405180602001604052806000815250611368565b505050565b610c05610d3d565b15610c45576040517f08c379a0000000000000000000000000000000000000000000000000000000008152600401610c3c90612fb5565b60405180910390fd5b610c56610c50611765565b82611844565b610c95576040517f08c379a0000000000000000000000000000000000000000000000000000000008152600401610c8c906130d5565b60405180910390fd5b610c9e81611cc2565b50565b60085481565b610caf611765565b73ffffffffffffffffffffffffffffffffffffffff16610ccd611126565b73ffffffffffffffffffffffffffffffffffffffff1614610d23576040517f08c379a0000000000000000000000000000000000000000000000000000000008152600401610d1a90613075565b60405180910390fd5b80600b9080519060200190610d3992919061255e565b5050565b60008060149054906101000a900460ff16905090565b6000806003600084815260200190815260200160002060009054906101000a900473ffffffffffffffffffffffffffffffffffffffff169050600073ffffffffffffffffffffffffffffffffffffffff168173ffffffffffffffffffffffffffffffffffffffff161415610dfc576040517f08c379a0000000000000000000000000000000000000000000000000000000008152600401610df390613015565b60405180910390fd5b80915050919050565b600b8054610e12906133d6565b80601f0160208091040260200160405190810160405280929190818152602001828054610e3e906133d6565b8015610e8b5780601f10610e6057610100808354040283529160200191610e8b565b820191906000526020600020905b815481529060010190602001808311610e6e57829003601f168201915b505050505081565b60008073ffffffffffffffffffffffffffffffffffffffff168273ffffffffffffffffffffffffffffffffffffffff161415610f04576040517f08c379a0000000000000000000000000000000000000000000000000000000008152600401610efb90612ff5565b60405180910390fd5b600460008373ffffffffffffffffffffffffffffffffffffffff1673ffffffffffffffffffffffffffffffffffffffff168152602001908152602001600020549050919050565b610f53611765565b73ffffffffffffffffffffffffffffffffffffffff16610f71611126565b73ffffffffffffffffffffffffffffffffffffffff1614610fc7576040517f08c379a0000000000000000000000000000000000000000000000000000000008152600401610fbe90613075565b60405180910390fd5b610fd16000611dd3565b565b610fdb610d3d565b1561101b576040517f08c379a000000000000000000000000000000000000000000000000000000000815260040161101290612fb5565b60405180910390fd5b600a54341461105f576040517f08c379a0000000000000000000000000000000000000000000000000000000008152600401611056906130f5565b60405180910390fd5b60008061106a611126565b73ffffffffffffffffffffffffffffffffffffffff163460405161108d90612e1c565b60006040518083038185875af1925050503d80600081146110ca576040519150601f19603f3d011682016040523d82523d6000602084013e6110cf565b606091505b509150915081611114576040517f08c379a000000000000000000000000000000000000000000000000000000000815260040161110b90613135565b60405180910390fd5b6111213360075485611e97565b505050565b60008060009054906101000a900473ffffffffffffffffffffffffffffffffffffffff16905090565b60606002805461115e906133d6565b80601f016020809104026020016040519081016040528092919081815260200182805461118a906133d6565b80156111d75780601f106111ac576101008083540402835291602001916111d7565b820191906000526020600020905b8154815290600101906020018083116111ba57829003601f168201915b5050505050905090565b60075481565b6111ef611765565b73ffffffffffffffffffffffffffffffffffffffff168273ffffffffffffffffffffffffffffffffffffffff16141561125d576040517f08c379a000000000000000000000000000000000000000000000000000000000815260040161125490612f75565b60405180910390fd5b806006600061126a611765565b73ffffffffffffffffffffffffffffffffffffffff1673ffffffffffffffffffffffffffffffffffffffff16815260200190815260200160002060008473ffffffffffffffffffffffffffffffffffffffff1673ffffffffffffffffffffffffffffffffffffffff16815260200190815260200160002060006101000a81548160ff0219169083151502179055508173ffffffffffffffffffffffffffffffffffffffff16611317611765565b73ffffffffffffffffffffffffffffffffffffffff167f17307eab39ab6107e8899845ad3d59bd9653f200f220920489ca2b5937696c318360405161135c9190612e98565b60405180910390a35050565b611379611373611765565b83611844565b6113b8576040517f08c379a00000000000000000000000000000000000000000000000000000000081526004016113af90613155565b60405180910390fd5b6113c484848484611ef2565b50505050565b600a5481565b60606113db826116f9565b61141a576040517f08c379a0000000000000000000000000000000000000000000000000000000008152600401611411906130b5565b60405180910390fd5b6000611424611f4e565b90506000815111611444576040518060200160405280600081525061146f565b8061144e84611fe0565b60405160200161145f929190612df8565b6040516020818303038152906040525b915050919050565b60095481565b611485611765565b73ffffffffffffffffffffffffffffffffffffffff166114a3611126565b73ffffffffffffffffffffffffffffffffffffffff16146114f9576040517f08c379a00000000000000000000000000000000000000000000000000000000081526004016114f090613075565b60405180910390fd5b80600a8190555050565b6000600660008473ffffffffffffffffffffffffffffffffffffffff1673ffffffffffffffffffffffffffffffffffffffff16815260200190815260200160002060008373ffffffffffffffffffffffffffffffffffffffff1673ffffffffffffffffffffffffffffffffffffffff16815260200190815260200160002060009054906101000a900460ff16905092915050565b61159f611765565b73ffffffffffffffffffffffffffffffffffffffff166115bd611126565b73ffffffffffffffffffffffffffffffffffffffff1614611613576040517f08c379a000000000000000000000000000000000000000000000000000000000815260040161160a90613075565b60405180910390fd5b600073ffffffffffffffffffffffffffffffffffffffff168173ffffffffffffffffffffffffffffffffffffffff161415611683576040517f08c379a000000000000000000000000000000000000000000000000000000000815260040161167a90612f15565b60405180910390fd5b61168c81611dd3565b50565b60007f01ffc9a7000000000000000000000000000000000000000000000000000000007bffffffffffffffffffffffffffffffffffffffffffffffffffffffff1916827bffffffffffffffffffffffffffffffffffffffffffffffffffffffff1916149050919050565b60008073ffffffffffffffffffffffffffffffffffffffff166003600084815260200190815260200160002060009054906101000a900473ffffffffffffffffffffffffffffffffffffffff1673ffffffffffffffffffffffffffffffffffffffff1614159050919050565b600033905090565b816005600083815260200190815260200160002060006101000a81548173ffffffffffffffffffffffffffffffffffffffff021916908373ffffffffffffffffffffffffffffffffffffffff160217905550808273ffffffffffffffffffffffffffffffffffffffff166117e083610d53565b73ffffffffffffffffffffffffffffffffffffffff167f8c5be1e5ebec7d5bd14f71427d1e84f3dd0314c0f7b2291e5b200ac8c7c3b92560405160405180910390a45050565b611840828260405180602001604052806000815250611e97565b5050565b600061184f826116f9565b61188e576040517f08c379a000000000000000000000000000000000000000000000000000000000815260040161188590612f95565b60405180910390fd5b600061189983610d53565b90508073ffffffffffffffffffffffffffffffffffffffff168473ffffffffffffffffffffffffffffffffffffffff16148061190857508373ffffffffffffffffffffffffffffffffffffffff166118f0846107ee565b73ffffffffffffffffffffffffffffffffffffffff16145b8061191957506119188185611503565b5b91505092915050565b8273ffffffffffffffffffffffffffffffffffffffff1661194282610d53565b73ffffffffffffffffffffffffffffffffffffffff1614611998576040517f08c379a000000000000000000000000000000000000000000000000000000000815260040161198f90613095565b60405180910390fd5b600073ffffffffffffffffffffffffffffffffffffffff168273ffffffffffffffffffffffffffffffffffffffff161415611a08576040517f08c379a00000000000000000000000000000000000000000000000000000000081526004016119ff90612f55565b60405180910390fd5b611a13838383612141565b611a1e60008261176d565b6001600460008573ffffffffffffffffffffffffffffffffffffffff1673ffffffffffffffffffffffffffffffffffffffff1681526020019081526020016000206000828254611a6e91906132ec565b925050819055506001600460008473ffffffffffffffffffffffffffffffffffffffff1673ffffffffffffffffffffffffffffffffffffffff1681526020019081526020016000206000828254611ac59190613265565b92505081905550816003600083815260200190815260200160002060006101000a81548173ffffffffffffffffffffffffffffffffffffffff021916908373ffffffffffffffffffffffffffffffffffffffff160217905550808273ffffffffffffffffffffffffffffffffffffffff168473ffffffffffffffffffffffffffffffffffffffff167fddf252ad1be2c89b69c2b068fc378daa952ba7f163c4a11628f55a4df523b3ef60405160405180910390a4505050565b611b86610d3d565b611bc5576040517f08c379a0000000000000000000000000000000000000000000000000000000008152600401611bbc90612ed5565b60405180910390fd5b60008060146101000a81548160ff0219169083151502179055507f5db9ee0a495bf2e6ff9c91a7834c1ba4fdd244a5e8aa4e537bd38aeae4b073aa611c08611765565b604051611c159190612e31565b60405180910390a1565b611c27610d3d565b15611c67576040517f08c379a0000000000000000000000000000000000000000000000000000000008152600401611c5e90612fb5565b60405180910390fd5b6001600060146101000a81548160ff0219169083151502179055507f62e78cea01bee320cd4e420270b5ea74000d11b0c9f74754ebdbfc544b05a258611cab611765565b604051611cb89190612e31565b60405180910390a1565b6000611ccd82610d53565b9050611cdb81600084612141565b611ce660008361176d565b6001600460008373ffffffffffffffffffffffffffffffffffffffff1673ffffffffffffffffffffffffffffffffffffffff1681526020019081526020016000206000828254611d3691906132ec565b925050819055506003600083815260200190815260200160002060006101000a81549073ffffffffffffffffffffffffffffffffffffffff021916905581600073ffffffffffffffffffffffffffffffffffffffff168273ffffffffffffffffffffffffffffffffffffffff167fddf252ad1be2c89b69c2b068fc378daa952ba7f163c4a11628f55a4df523b3ef60405160405180910390a45050565b60008060009054906101000a900473ffffffffffffffffffffffffffffffffffffffff169050816000806101000a81548173ffffffffffffffffffffffffffffffffffffffff021916908373ffffffffffffffffffffffffffffffffffffffff1602179055508173ffffffffffffffffffffffffffffffffffffffff168173ffffffffffffffffffffffffffffffffffffffff167f8be0079c531659141344cd1fd0a4f28419497f9722a3daafe3b4186f6b6457e060405160405180910390a35050565b611ea183836121e6565b611eae60008484846123b4565b611eed576040517f08c379a0000000000000000000000000000000000000000000000000000000008152600401611ee490612ef5565b60405180910390fd5b505050565b611efd848484611922565b611f09848484846123b4565b611f48576040517f08c379a0000000000000000000000000000000000000000000000000000000008152600401611f3f90612ef5565b60405180910390fd5b50505050565b6060600b8054611f5d906133d6565b80601f0160208091040260200160405190810160405280929190818152602001828054611f89906133d6565b8015611fd65780601f10611fab57610100808354040283529160200191611fd6565b820191906000526020600020905b815481529060010190602001808311611fb957829003601f168201915b5050505050905090565b60606000821415612028576040518060400160405280600181526020017f3000000000000000000000000000000000000000000000000000000000000000815250905061213c565b600082905060005b6000821461205a57808061204390613439565b915050600a8261205391906132bb565b9150612030565b60008167ffffffffffffffff8111156120765761207561356f565b5b6040519080825280601f01601f1916602001820160405280156120a85781602001600182028036833780820191505090505b5090505b60008514612135576001826120c191906132ec565b9150600a856120d09190613482565b60306120dc9190613265565b60f81b8183815181106120f2576120f1613540565b5b60200101907effffffffffffffffffffffffffffffffffffffffffffffffffffffffffffff1916908160001a905350600a8561212e91906132bb565b94506120ac565b8093505050505b919050565b600073ffffffffffffffffffffffffffffffffffffffff168373ffffffffffffffffffffffffffffffffffffffff161415612191576001600760008282546121899190613265565b925050819055505b600073ffffffffffffffffffffffffffffffffffffffff168273ffffffffffffffffffffffffffffffffffffffff1614156121e1576001600860008282546121d99190613265565b925050819055505b505050565b600073ffffffffffffffffffffffffffffffffffffffff168273ffffffffffffffffffffffffffffffffffffffff161415612256576040517f08c379a000000000000000000000000000000000000000000000000000000000815260040161224d90613035565b60405180910390fd5b61225f816116f9565b1561229f576040517f08c379a000000000000000000000000000000000000000000000000000000000815260040161229690612f35565b60405180910390fd5b6122ab60008383612141565b6001600460008473ffffffffffffffffffffffffffffffffffffffff1673ffffffffffffffffffffffffffffffffffffffff16815260200190815260200160002060008282546122fb9190613265565b92505081905550816003600083815260200190815260200160002060006101000a81548173ffffffffffffffffffffffffffffffffffffffff021916908373ffffffffffffffffffffffffffffffffffffffff160217905550808273ffffffffffffffffffffffffffffffffffffffff16600073ffffffffffffffffffffffffffffffffffffffff167fddf252ad1be2c89b69c2b068fc378daa952ba7f163c4a11628f55a4df523b3ef60405160405180910390a45050565b60006123d58473ffffffffffffffffffffffffffffffffffffffff1661254b565b1561253e578373ffffffffffffffffffffffffffffffffffffffff1663150b7a026123fe611765565b8786866040518563ffffffff1660e01b81526004016124209493929190612e4c565b602060405180830381600087803b15801561243a57600080fd5b505af192505050801561246b57506040513d601f19601f82011682018060405250810190612468919061293a565b60015b6124ee573d806000811461249b576040519150601f19603f3d011682016040523d82523d6000602084013e6124a0565b606091505b506000815114156124e6576040517f08c379a00000000000000000000000000000000000000000000000000000000081526004016124dd90612ef5565b60405180910390fd5b805181602001fd5b63150b7a0260e01b7bffffffffffffffffffffffffffffffffffffffffffffffffffffffff1916817bffffffffffffffffffffffffffffffffffffffffffffffffffffffff191614915050612543565b600190505b949350505050565b600080823b905060008111915050919050565b82805461256a906133d6565b90600052602060002090601f01602090048101928261258c57600085556125d3565b82601f106125a557805160ff19168380011785556125d3565b828001600101855582156125d3579182015b828111156125d25782518255916020019190600101906125b7565b5b5090506125e091906125e4565b5090565b5b808211156125fd5760008160009055506001016125e5565b5090565b600061261461260f846131b5565b613190565b9050828152602081018484840111156126305761262f6135a3565b5b61263b848285613394565b509392505050565b6000612656612651846131e6565b613190565b905082815260208101848484011115612672576126716135a3565b5b61267d848285613394565b509392505050565b60008135905061269481613aeb565b92915050565b6000813590506126a981613b02565b92915050565b6000813590506126be81613b19565b92915050565b6000815190506126d381613b19565b92915050565b600082601f8301126126ee576126ed61359e565b5b81356126fe848260208601612601565b91505092915050565b600082601f83011261271c5761271b61359e565b5b813561272c848260208601612643565b91505092915050565b60008135905061274481613b30565b92915050565b6000602082840312156127605761275f6135ad565b5b600061276e84828501612685565b91505092915050565b6000806040838503121561278e5761278d6135ad565b5b600061279c85828601612685565b92505060206127ad85828601612685565b9150509250929050565b6000806000606084860312156127d0576127cf6135ad565b5b60006127de86828701612685565b93505060206127ef86828701612685565b925050604061280086828701612735565b9150509250925092565b60008060008060808587031215612824576128236135ad565b5b600061283287828801612685565b945050602061284387828801612685565b935050604061285487828801612735565b925050606085013567ffffffffffffffff811115612875576128746135a8565b5b612881878288016126d9565b91505092959194509250565b600080604083850312156128a4576128a36135ad565b5b60006128b285828601612685565b92505060206128c38582860161269a565b9150509250929050565b600080604083850312156128e4576128e36135ad565b5b60006128f285828601612685565b925050602061290385828601612735565b9150509250929050565b600060208284031215612923576129226135ad565b5b6000612931848285016126af565b91505092915050565b6000602082840312156129505761294f6135ad565b5b600061295e848285016126c4565b91505092915050565b60006020828403121561297d5761297c6135ad565b5b600082013567ffffffffffffffff81111561299b5761299a6135a8565b5b6129a7848285016126d9565b91505092915050565b6000602082840312156129c6576129c56135ad565b5b600082013567ffffffffffffffff8111156129e4576129e36135a8565b5b6129f084828501612707565b91505092915050565b600060208284031215612a0f57612a0e6135ad565b5b6000612a1d84828501612735565b91505092915050565b612a2f81613320565b82525050565b612a3e81613332565b82525050565b6000612a4f82613217565b612a59818561322d565b9350612a698185602086016133a3565b612a72816135b2565b840191505092915050565b6000612a8882613222565b612a928185613249565b9350612aa28185602086016133a3565b612aab816135b2565b840191505092915050565b6000612ac182613222565b612acb818561325a565b9350612adb8185602086016133a3565b80840191505092915050565b6000612af4601483613249565b9150612aff826135c3565b602082019050919050565b6000612b17603283613249565b9150612b22826135ec565b604082019050919050565b6000612b3a602683613249565b9150612b458261363b565b604082019050919050565b6000612b5d601c83613249565b9150612b688261368a565b602082019050919050565b6000612b80602483613249565b9150612b8b826136b3565b604082019050919050565b6000612ba3601983613249565b9150612bae82613702565b602082019050919050565b6000612bc6602c83613249565b9150612bd18261372b565b604082019050919050565b6000612be9601083613249565b9150612bf48261377a565b602082019050919050565b6000612c0c603883613249565b9150612c17826137a3565b604082019050919050565b6000612c2f602a83613249565b9150612c3a826137f2565b604082019050919050565b6000612c52602983613249565b9150612c5d82613841565b604082019050919050565b6000612c75602083613249565b9150612c8082613890565b602082019050919050565b6000612c98602c83613249565b9150612ca3826138b9565b604082019050919050565b6000612cbb602083613249565b9150612cc682613908565b602082019050919050565b6000612cde602983613249565b9150612ce982613931565b604082019050919050565b6000612d01602f83613249565b9150612d0c82613980565b604082019050919050565b6000612d24602083613249565b9150612d2f826139cf565b602082019050919050565b6000612d47601d83613249565b9150612d52826139f8565b602082019050919050565b6000612d6a602183613249565b9150612d7582613a21565b604082019050919050565b6000612d8d601f83613249565b9150612d9882613a70565b602082019050919050565b6000612db060008361323e565b9150612dbb82613a99565b600082019050919050565b6000612dd3603183613249565b9150612dde82613a9c565b604082019050919050565b612df28161338a565b82525050565b6000612e048285612ab6565b9150612e108284612ab6565b91508190509392505050565b6000612e2782612da3565b9150819050919050565b6000602082019050612e466000830184612a26565b92915050565b6000608082019050612e616000830187612a26565b612e6e6020830186612a26565b612e7b6040830185612de9565b8181036060830152612e8d8184612a44565b905095945050505050565b6000602082019050612ead6000830184612a35565b92915050565b60006020820190508181036000830152612ecd8184612a7d565b905092915050565b60006020820190508181036000830152612eee81612ae7565b9050919050565b60006020820190508181036000830152612f0e81612b0a565b9050919050565b60006020820190508181036000830152612f2e81612b2d565b9050919050565b60006020820190508181036000830152612f4e81612b50565b9050919050565b60006020820190508181036000830152612f6e81612b73565b9050919050565b60006020820190508181036000830152612f8e81612b96565b9050919050565b60006020820190508181036000830152612fae81612bb9565b9050919050565b60006020820190508181036000830152612fce81612bdc565b9050919050565b60006020820190508181036000830152612fee81612bff565b9050919050565b6000602082019050818103600083015261300e81612c22565b9050919050565b6000602082019050818103600083015261302e81612c45565b9050919050565b6000602082019050818103600083015261304e81612c68565b9050919050565b6000602082019050818103600083015261306e81612c8b565b9050919050565b6000602082019050818103600083015261308e81612cae565b9050919050565b600060208201905081810360008301526130ae81612cd1565b9050919050565b600060208201905081810360008301526130ce81612cf4565b9050919050565b600060208201905081810360008301526130ee81612d17565b9050919050565b6000602082019050818103600083015261310e81612d3a565b9050919050565b6000602082019050818103600083015261312e81612d5d565b9050919050565b6000602082019050818103600083015261314e81612d80565b9050919050565b6000602082019050818103600083015261316e81612dc6565b9050919050565b600060208201905061318a6000830184612de9565b92915050565b600061319a6131ab565b90506131a68282613408565b919050565b6000604051905090565b600067ffffffffffffffff8211156131d0576131cf61356f565b5b6131d9826135b2565b9050602081019050919050565b600067ffffffffffffffff8211156132015761320061356f565b5b61320a826135b2565b9050602081019050919050565b600081519050919050565b600081519050919050565b600082825260208201905092915050565b600081905092915050565b600082825260208201905092915050565b600081905092915050565b60006132708261338a565b915061327b8361338a565b9250827fffffffffffffffffffffffffffffffffffffffffffffffffffffffffffffffff038211156132b0576132af6134b3565b5b828201905092915050565b60006132c68261338a565b91506132d18361338a565b9250826132e1576132e06134e2565b5b828204905092915050565b60006132f78261338a565b91506133028361338a565b925082821015613315576133146134b3565b5b828203905092915050565b600061332b8261336a565b9050919050565b60008115159050919050565b60007fffffffff0000000000000000000000000000000000000000000000000000000082169050919050565b600073ffffffffffffffffffffffffffffffffffffffff82169050919050565b6000819050919050565b82818337600083830152505050565b60005b838110156133c15780820151818401526020810190506133a6565b838111156133d0576000848401525b50505050565b600060028204905060018216806133ee57607f821691505b6020821081141561340257613401613511565b5b50919050565b613411826135b2565b810181811067ffffffffffffffff821117156134305761342f61356f565b5b80604052505050565b60006134448261338a565b91507fffffffffffffffffffffffffffffffffffffffffffffffffffffffffffffffff821415613477576134766134b3565b5b600182019050919050565b600061348d8261338a565b91506134988361338a565b9250826134a8576134a76134e2565b5b828206905092915050565b7f4e487b7100000000000000000000000000000000000000000000000000000000600052601160045260246000fd5b7f4e487b7100000000000000000000000000000000000000000000000000000000600052601260045260246000fd5b7f4e487b7100000000000000000000000000000000000000000000000000000000600052602260045260246000fd5b7f4e487b7100000000000000000000000000000000000000000000000000000000600052603260045260246000fd5b7f4e487b7100000000000000000000000000000000000000000000000000000000600052604160045260246000fd5b600080fd5b600080fd5b600080fd5b600080fd5b6000601f19601f8301169050919050565b7f5061757361626c653a206e6f7420706175736564000000000000000000000000600082015250565b7f4552433732313a207472616e7366657220746f206e6f6e20455243373231526560008201527f63656976657220696d706c656d656e7465720000000000000000000000000000602082015250565b7f4f776e61626c653a206e6577206f776e657220697320746865207a65726f206160008201527f6464726573730000000000000000000000000000000000000000000000000000602082015250565b7f4552433732313a20746f6b656e20616c7265616479206d696e74656400000000600082015250565b7f4552433732313a207472616e7366657220746f20746865207a65726f2061646460008201527f7265737300000000000000000000000000000000000000000000000000000000602082015250565b7f4552433732313a20617070726f766520746f2063616c6c657200000000000000600082015250565b7f4552433732313a206f70657261746f7220717565727920666f72206e6f6e657860008201527f697374656e7420746f6b656e0000000000000000000000000000000000000000602082015250565b7f5061757361626c653a2070617573656400000000000000000000000000000000600082015250565b7f4552433732313a20617070726f76652063616c6c6572206973206e6f74206f7760008201527f6e6572206e6f7220617070726f76656420666f7220616c6c0000000000000000602082015250565b7f4552433732313a2062616c616e636520717565727920666f7220746865207a6560008201527f726f206164647265737300000000000000000000000000000000000000000000602082015250565b7f4552433732313a206f776e657220717565727920666f72206e6f6e657869737460008201527f656e7420746f6b656e0000000000000000000000000000000000000000000000602082015250565b7f4552433732313a206d696e7420746f20746865207a65726f2061646472657373600082015250565b7f4552433732313a20617070726f76656420717565727920666f72206e6f6e657860008201527f697374656e7420746f6b656e0000000000000000000000000000000000000000602082015250565b7f4f776e61626c653a2063616c6c6572206973206e6f7420746865206f776e6572600082015250565b7f4552433732313a207472616e73666572206f6620746f6b656e2074686174206960008201527f73206e6f74206f776e0000000000000000000000000000000000000000000000602082015250565b7f4552433732314d657461646174613a2055524920717565727920666f72206e6f60008201527f6e6578697374656e7420746f6b656e0000000000000000000000000000000000602082015250565b7f63616c6c6572206973206e6f74206f776e6572206e6f7220617070726f766564600082015250565b7f4d7573742073656e642065786163742076616c756520746f206d696e74000000600082015250565b7f4552433732313a20617070726f76616c20746f2063757272656e74206f776e6560008201527f7200000000000000000000000000000000000000000000000000000000000000602082015250565b7f4661696c656420746f2073656e6420746f206f776e6572206164647265737300600082015250565b50565b7f4552433732313a207472616e736665722063616c6c6572206973206e6f74206f60008201527f776e6572206e6f7220617070726f766564000000000000000000000000000000602082015250565b613af481613320565b8114613aff57600080fd5b50565b613b0b81613332565b8114613b1657600080fd5b50565b613b228161333e565b8114613b2d57600080fd5b50565b613b398161338a565b8114613b4457600080fd5b5056fea2646970667358221220109dc7d26c4083489108ef4bf180f0ccd8d12f08999d2a2cb481c14e9c81054964736f6c63430008070033",
  "immutableReferences": {},
  "source": "// SPDX-License-Identifier: UNLICENSED\npragma solidity 0.8.7;\n\nimport \"@openzeppelin/contracts/access/Ownable.sol\";\nimport \"@openzeppelin/contracts/security/Pausable.sol\";\nimport \"@openzeppelin/contracts/token/ERC721/ERC721.sol\";\n\ncontract BuyableERC721 is Ownable, Pausable, ERC721 {\n\n    uint256 public mintCount;\n    uint256 public burnCount;\n    uint256 public maxSupply;\n    uint256 public basePrice = 1000000000000000000; //1 ETH\n    string public baseURI;\n\n    constructor(string memory name_, string memory symbol_, uint256 maxSupply_) ERC721(name_, symbol_) {\n        maxSupply = maxSupply_;\n    }\n\n    /// @dev toggles paused state\n    function togglePaused() public onlyOwner {\n        if (paused()) {\n            _unpause();\n        } else {\n            _pause();\n        }\n    }\n\n    /// @dev mints the next tokenId to msg.sender if min value is paid\n    function mint() public payable whenNotPaused {\n        //validate\n        require(msg.value == basePrice, \"Must send exact value to mint\");\n\n        //send eth to owner address\n        (bool sent, bytes memory data) = owner().call{value: msg.value}(\"\");\n        require(sent, \"Failed to send to owner address\");\n\n        _safeMint(msg.sender, mintCount);\n    }\n\n    /// @dev mints the tokenId and forwards data if min value is paid\n    /// @param data extra bytes data to pass along\n    function mint(bytes memory data) public payable whenNotPaused {\n        //validate\n        require(msg.value == basePrice, \"Must send exact value to mint\");\n\n        //send eth to owner address\n        (bool sent, bytes memory data_) = owner().call{value: msg.value}(\"\");\n        require(sent, \"Failed to send to owner address\");\n\n        _safeMint(msg.sender, mintCount, data);\n    }\n\n    /// @dev burns a token by setting its owbership to the zero address\n    /// @param tokenId id of token to burn\n    function burn(uint256 tokenId) public whenNotPaused {\n        //validate\n        require(_isApprovedOrOwner(_msgSender(), tokenId), \"caller is not owner nor approved\");\n\n        _burn(tokenId);\n    }\n\n    /// @dev sets a new basePrice value\n    /// @param newBasePrice value of new basePrice\n    function setBasePrice(uint256 newBasePrice) public onlyOwner {\n        basePrice = newBasePrice;\n    }\n\n    /// @dev sets a new baseURI for contract\n    /// @param newBaseURI new baseURI to set\n    function setBaseURI(string memory newBaseURI) public onlyOwner {\n        baseURI = newBaseURI;\n    }\n\n    /// @dev overridden ERC721Metadata function to return baseURI\n    /// @return baseURI string\n    function _baseURI() internal view override returns (string memory) {\n        return baseURI;\n    }\n\n    /// @dev overridden ERC721 function hook that is called before every token transfer, including\n    /// minting and burning events.\n    /// @param from address token is moving from\n    /// @param to address token is moving to\n    /// @param tokenId id of token being moved\n    function _beforeTokenTransfer(address from, address to, uint256 tokenId) internal override {\n        //if minting\n        if (from == address(0x0)) {\n            mintCount += 1;\n        }\n\n        //if burning\n        if (to == address(0x0)) {\n            burnCount += 1;\n        }\n    }\n\n    /// @dev function to receive Ether. msg.data must be empty\n    receive() external payable {}\n\n    /// @dev fallback function is called when msg.data is not empty\n    fallback() external payable {}\n}",
  "sourcePath": "/Users/craig/GitHub/ethereum-contract-template/contracts/BuyableERC721.sol",
  "compiler": {
    "name": "solc",
    "version": "0.8.7+commit.e28d00a7.Emscripten.clang"
  },
  "schemaVersion": "3.4.1",
  "updatedAt": "2021-09-01T21:13:55.897Z",
  "networkType": "ethereum",
  "devdoc": {
    "kind": "dev",
    "methods": {
      "approve(address,uint256)": {
        "details": "See {IERC721-approve}."
      },
      "balanceOf(address)": {
        "details": "See {IERC721-balanceOf}."
      },
      "burn(uint256)": {
        "details": "burns a token by setting its owbership to the zero address",
        "params": {
          "tokenId": "id of token to burn"
        }
      },
      "getApproved(uint256)": {
        "details": "See {IERC721-getApproved}."
      },
      "isApprovedForAll(address,address)": {
        "details": "See {IERC721-isApprovedForAll}."
      },
      "mint()": {
        "details": "mints the next tokenId to msg.sender if min value is paid"
      },
      "mint(bytes)": {
        "details": "mints the tokenId and forwards data if min value is paid",
        "params": {
          "data": "extra bytes data to pass along"
        }
      },
      "name()": {
        "details": "See {IERC721Metadata-name}."
      },
      "owner()": {
        "details": "Returns the address of the current owner."
      },
      "ownerOf(uint256)": {
        "details": "See {IERC721-ownerOf}."
      },
      "paused()": {
        "details": "Returns true if the contract is paused, and false otherwise."
      },
      "renounceOwnership()": {
        "details": "Leaves the contract without owner. It will not be possible to call `onlyOwner` functions anymore. Can only be called by the current owner. NOTE: Renouncing ownership will leave the contract without an owner, thereby removing any functionality that is only available to the owner."
      },
      "safeTransferFrom(address,address,uint256)": {
        "details": "See {IERC721-safeTransferFrom}."
      },
      "safeTransferFrom(address,address,uint256,bytes)": {
        "details": "See {IERC721-safeTransferFrom}."
      },
      "setApprovalForAll(address,bool)": {
        "details": "See {IERC721-setApprovalForAll}."
      },
      "setBasePrice(uint256)": {
        "details": "sets a new basePrice value",
        "params": {
          "newBasePrice": "value of new basePrice"
        }
      },
      "setBaseURI(string)": {
        "details": "sets a new baseURI for contract",
        "params": {
          "newBaseURI": "new baseURI to set"
        }
      },
      "supportsInterface(bytes4)": {
        "details": "See {IERC165-supportsInterface}."
      },
      "symbol()": {
        "details": "See {IERC721Metadata-symbol}."
      },
      "togglePaused()": {
        "details": "toggles paused state"
      },
      "tokenURI(uint256)": {
        "details": "See {IERC721Metadata-tokenURI}."
      },
      "transferFrom(address,address,uint256)": {
        "details": "See {IERC721-transferFrom}."
      },
      "transferOwnership(address)": {
        "details": "Transfers ownership of the contract to a new account (`newOwner`). Can only be called by the current owner."
      }
    },
    "version": 1
  },
  "userdoc": {
    "kind": "user",
    "methods": {},
    "version": 1
  }
}