{
  "contractName": "CustomERC721",
  "abi": [
    {
      "inputs": [
        {
          "internalType": "string",
          "name": "name_",
          "type": "string"
        },
        {
          "internalType": "string",
          "name": "symbol_",
          "type": "string"
        },
        {
          "internalType": "uint256",
          "name": "maxSupply_",
          "type": "uint256"
        }
      ],
      "stateMutability": "nonpayable",
      "type": "constructor"
    },
    {
      "anonymous": false,
      "inputs": [
        {
          "indexed": true,
          "internalType": "address",
          "name": "owner",
          "type": "address"
        },
        {
          "indexed": true,
          "internalType": "address",
          "name": "approved",
          "type": "address"
        },
        {
          "indexed": true,
          "internalType": "uint256",
          "name": "tokenId",
          "type": "uint256"
        }
      ],
      "name": "Approval",
      "type": "event"
    },
    {
      "anonymous": false,
      "inputs": [
        {
          "indexed": true,
          "internalType": "address",
          "name": "owner",
          "type": "address"
        },
        {
          "indexed": true,
          "internalType": "address",
          "name": "operator",
          "type": "address"
        },
        {
          "indexed": false,
          "internalType": "bool",
          "name": "approved",
          "type": "bool"
        }
      ],
      "name": "ApprovalForAll",
      "type": "event"
    },
    {
      "anonymous": false,
      "inputs": [
        {
          "indexed": true,
          "internalType": "address",
          "name": "previousOwner",
          "type": "address"
        },
        {
          "indexed": true,
          "internalType": "address",
          "name": "newOwner",
          "type": "address"
        }
      ],
      "name": "OwnershipTransferred",
      "type": "event"
    },
    {
      "anonymous": false,
      "inputs": [
        {
          "indexed": true,
          "internalType": "address",
          "name": "from",
          "type": "address"
        },
        {
          "indexed": true,
          "internalType": "address",
          "name": "to",
          "type": "address"
        },
        {
          "indexed": true,
          "internalType": "uint256",
          "name": "tokenId",
          "type": "uint256"
        }
      ],
      "name": "Transfer",
      "type": "event"
    },
    {
      "inputs": [],
      "name": "baseURI",
      "outputs": [
        {
          "internalType": "string",
          "name": "",
          "type": "string"
        }
      ],
      "stateMutability": "view",
      "type": "function"
    },
    {
      "inputs": [],
      "name": "circulatingSupply",
      "outputs": [
        {
          "internalType": "uint256",
          "name": "",
          "type": "uint256"
        }
      ],
      "stateMutability": "view",
      "type": "function"
    },
    {
      "inputs": [],
      "name": "maxSupply",
      "outputs": [
        {
          "internalType": "uint256",
          "name": "",
          "type": "uint256"
        }
      ],
      "stateMutability": "view",
      "type": "function"
    },
    {
      "inputs": [],
      "name": "owner",
      "outputs": [
        {
          "internalType": "address",
          "name": "",
          "type": "address"
        }
      ],
      "stateMutability": "view",
      "type": "function"
    },
    {
      "inputs": [],
      "name": "renounceOwnership",
      "outputs": [],
      "stateMutability": "nonpayable",
      "type": "function"
    },
    {
      "inputs": [],
      "name": "totalSupply",
      "outputs": [
        {
          "internalType": "uint256",
          "name": "",
          "type": "uint256"
        }
      ],
      "stateMutability": "view",
      "type": "function"
    },
    {
      "inputs": [
        {
          "internalType": "address",
          "name": "newOwner",
          "type": "address"
        }
      ],
      "name": "transferOwnership",
      "outputs": [],
      "stateMutability": "nonpayable",
      "type": "function"
    },
    {
      "inputs": [
        {
          "internalType": "address",
          "name": "to",
          "type": "address"
        }
      ],
      "name": "mint",
      "outputs": [],
      "stateMutability": "nonpayable",
      "type": "function"
    },
    {
      "inputs": [
        {
          "internalType": "uint256",
          "name": "tokenId",
          "type": "uint256"
        }
      ],
      "name": "burn",
      "outputs": [],
      "stateMutability": "nonpayable",
      "type": "function"
    },
    {
      "inputs": [
        {
          "internalType": "string",
          "name": "newBaseURI",
          "type": "string"
        }
      ],
      "name": "setBaseURI",
      "outputs": [],
      "stateMutability": "nonpayable",
      "type": "function"
    },
    {
      "inputs": [
        {
          "internalType": "address",
          "name": "owner",
          "type": "address"
        }
      ],
      "name": "balanceOf",
      "outputs": [
        {
          "internalType": "uint256",
          "name": "balance",
          "type": "uint256"
        }
      ],
      "stateMutability": "view",
      "type": "function"
    },
    {
      "inputs": [
        {
          "internalType": "uint256",
          "name": "tokenId",
          "type": "uint256"
        }
      ],
      "name": "ownerOf",
      "outputs": [
        {
          "internalType": "address",
          "name": "owner",
          "type": "address"
        }
      ],
      "stateMutability": "view",
      "type": "function"
    },
    {
      "inputs": [
        {
          "internalType": "address",
          "name": "from",
          "type": "address"
        },
        {
          "internalType": "address",
          "name": "to",
          "type": "address"
        },
        {
          "internalType": "uint256",
          "name": "tokenId",
          "type": "uint256"
        }
      ],
      "name": "transferFrom",
      "outputs": [],
      "stateMutability": "nonpayable",
      "type": "function"
    },
    {
      "inputs": [
        {
          "internalType": "address",
          "name": "to",
          "type": "address"
        },
        {
          "internalType": "uint256",
          "name": "tokenId",
          "type": "uint256"
        }
      ],
      "name": "approve",
      "outputs": [],
      "stateMutability": "nonpayable",
      "type": "function"
    },
    {
      "inputs": [
        {
          "internalType": "uint256",
          "name": "tokenId",
          "type": "uint256"
        }
      ],
      "name": "getApproved",
      "outputs": [
        {
          "internalType": "address",
          "name": "operator",
          "type": "address"
        }
      ],
      "stateMutability": "view",
      "type": "function"
    },
    {
      "inputs": [
        {
          "internalType": "address",
          "name": "operator",
          "type": "address"
        },
        {
          "internalType": "bool",
          "name": "approved",
          "type": "bool"
        }
      ],
      "name": "setApprovalForAll",
      "outputs": [],
      "stateMutability": "nonpayable",
      "type": "function"
    },
    {
      "inputs": [
        {
          "internalType": "address",
          "name": "owner",
          "type": "address"
        },
        {
          "internalType": "address",
          "name": "operator",
          "type": "address"
        }
      ],
      "name": "isApprovedForAll",
      "outputs": [
        {
          "internalType": "bool",
          "name": "",
          "type": "bool"
        }
      ],
      "stateMutability": "view",
      "type": "function"
    },
    {
      "inputs": [
        {
          "internalType": "address",
          "name": "from",
          "type": "address"
        },
        {
          "internalType": "address",
          "name": "to",
          "type": "address"
        },
        {
          "internalType": "uint256",
          "name": "tokenId",
          "type": "uint256"
        }
      ],
      "name": "safeTransferFrom",
      "outputs": [],
      "stateMutability": "nonpayable",
      "type": "function"
    },
    {
      "inputs": [
        {
          "internalType": "address",
          "name": "from",
          "type": "address"
        },
        {
          "internalType": "address",
          "name": "to",
          "type": "address"
        },
        {
          "internalType": "uint256",
          "name": "tokenId",
          "type": "uint256"
        },
        {
          "internalType": "bytes",
          "name": "data",
          "type": "bytes"
        }
      ],
      "name": "safeTransferFrom",
      "outputs": [],
      "stateMutability": "nonpayable",
      "type": "function"
    },
    {
      "inputs": [],
      "name": "name",
      "outputs": [
        {
          "internalType": "string",
          "name": "",
          "type": "string"
        }
      ],
      "stateMutability": "view",
      "type": "function"
    },
    {
      "inputs": [],
      "name": "symbol",
      "outputs": [
        {
          "internalType": "string",
          "name": "",
          "type": "string"
        }
      ],
      "stateMutability": "view",
      "type": "function"
    },
    {
      "inputs": [
        {
          "internalType": "uint256",
          "name": "tokenId",
          "type": "uint256"
        }
      ],
      "name": "tokenURI",
      "outputs": [
        {
          "internalType": "string",
          "name": "",
          "type": "string"
        }
      ],
      "stateMutability": "view",
      "type": "function"
    },
    {
      "inputs": [
        {
          "internalType": "bytes4",
          "name": "interfaceId",
          "type": "bytes4"
        }
      ],
      "name": "supportsInterface",
      "outputs": [
        {
          "internalType": "bool",
          "name": "",
          "type": "bool"
        }
      ],
      "stateMutability": "view",
      "type": "function"
    }
  ],
  "bytecode": "0x60806040523480156200001157600080fd5b50604051620037c0380380620037c08339818101604052810190620000379190620002aa565b620000576200004b6200009960201b60201c565b620000a160201b60201c565b82600190805190602001906200006f92919062000165565b5081600290805190602001906200008892919062000165565b5080600581905550505050620004ec565b600033905090565b60008060009054906101000a900473ffffffffffffffffffffffffffffffffffffffff169050816000806101000a81548173ffffffffffffffffffffffffffffffffffffffff021916908373ffffffffffffffffffffffffffffffffffffffff1602179055508173ffffffffffffffffffffffffffffffffffffffff168173ffffffffffffffffffffffffffffffffffffffff167f8be0079c531659141344cd1fd0a4f28419497f9722a3daafe3b4186f6b6457e060405160405180910390a35050565b8280546200017390620003e3565b90600052602060002090601f016020900481019282620001975760008555620001e3565b82601f10620001b257805160ff1916838001178555620001e3565b82800160010185558215620001e3579182015b82811115620001e2578251825591602001919060010190620001c5565b5b509050620001f29190620001f6565b5090565b5b8082111562000211576000816000905550600101620001f7565b5090565b60006200022c62000226846200036d565b62000344565b9050828152602081018484840111156200024b576200024a620004b2565b5b62000258848285620003ad565b509392505050565b600082601f830112620002785762000277620004ad565b5b81516200028a84826020860162000215565b91505092915050565b600081519050620002a481620004d2565b92915050565b600080600060608486031215620002c657620002c5620004bc565b5b600084015167ffffffffffffffff811115620002e757620002e6620004b7565b5b620002f58682870162000260565b935050602084015167ffffffffffffffff811115620003195762000318620004b7565b5b620003278682870162000260565b92505060406200033a8682870162000293565b9150509250925092565b60006200035062000363565b90506200035e828262000419565b919050565b6000604051905090565b600067ffffffffffffffff8211156200038b576200038a6200047e565b5b6200039682620004c1565b9050602081019050919050565b6000819050919050565b60005b83811015620003cd578082015181840152602081019050620003b0565b83811115620003dd576000848401525b50505050565b60006002820490506001821680620003fc57607f821691505b602082108114156200041357620004126200044f565b5b50919050565b6200042482620004c1565b810181811067ffffffffffffffff821117156200044657620004456200047e565b5b80604052505050565b7f4e487b7100000000000000000000000000000000000000000000000000000000600052602260045260246000fd5b7f4e487b7100000000000000000000000000000000000000000000000000000000600052604160045260246000fd5b600080fd5b600080fd5b600080fd5b600080fd5b6000601f19601f8301169050919050565b620004dd81620003a3565b8114620004e957600080fd5b50565b6132c480620004fc6000396000f3fe608060405234801561001057600080fd5b506004361061014d5760003560e01c80636c0360eb116100c3578063a22cb4651161007c578063a22cb46514610378578063b88d4fde14610394578063c87b56dd146103b0578063d5abeb01146103e0578063e985e9c5146103fe578063f2fde38b1461042e5761014d565b80636c0360eb146102c657806370a08231146102e4578063715018a6146103145780638da5cb5b1461031e5780639358928b1461033c57806395d89b411461035a5761014d565b806323b872dd1161011557806323b872dd1461020a57806342842e0e1461022657806342966c681461024257806355f804b31461025e5780636352211e1461027a5780636a627842146102aa5761014d565b806301ffc9a71461015257806306fdde0314610182578063081812fc146101a0578063095ea7b3146101d057806318160ddd146101ec575b600080fd5b61016c6004803603810190610167919061265d565b61044a565b60405161017991906129cb565b60405180910390f35b61018a61051c565b60405161019791906129e6565b60405180910390f35b6101ba60048036038101906101b591906126d3565b6105ae565b6040516101c791906129b0565b60405180910390f35b6101ea60048036038101906101e5919061261d565b610690565b005b6101f4610a02565b6040516102019190612ba8565b60405180910390f35b610224600480360381019061021f9190612502565b610a08565b005b610240600480360381019061023b9190612502565b610e67565b005b61025c600480360381019061025791906126d3565b61136b565b005b6102786004803603810190610273919061268a565b611608565b005b610294600480360381019061028f91906126d3565b61169e565b6040516102a191906129b0565b60405180910390f35b6102c460048036038101906102bf9190612495565b61177d565b005b6102ce6119ff565b6040516102db91906129e6565b60405180910390f35b6102fe60048036038101906102f99190612495565b611a8d565b60405161030b9190612ba8565b60405180910390f35b61031c611ad6565b005b610326611b5e565b60405161033391906129b0565b60405180910390f35b610344611b87565b6040516103519190612ba8565b60405180910390f35b610362611b8d565b60405161036f91906129e6565b60405180910390f35b610392600480360381019061038d91906125dd565b611c1f565b005b6103ae60048036038101906103a99190612555565b611d8b565b005b6103ca60048036038101906103c591906126d3565b611d92565b6040516103d791906129e6565b60405180910390f35b6103e8611f19565b6040516103f59190612ba8565b60405180910390f35b610418600480360381019061041391906124c2565b611f1f565b60405161042591906129cb565b60405180910390f35b61044860048036038101906104439190612495565b611fb3565b005b60007f80ac58cd000000000000000000000000000000000000000000000000000000007bffffffffffffffffffffffffffffffffffffffffffffffffffffffff1916827bffffffffffffffffffffffffffffffffffffffffffffffffffffffff1916148061051557507f5b5e139f000000000000000000000000000000000000000000000000000000007bffffffffffffffffffffffffffffffffffffffffffffffffffffffff1916827bffffffffffffffffffffffffffffffffffffffffffffffffffffffff1916145b9050919050565b60606001805461052b90612db1565b80601f016020809104026020016040519081016040528092919081815260200182805461055790612db1565b80156105a45780601f10610579576101008083540402835291602001916105a4565b820191906000526020600020905b81548152906001019060200180831161058757829003601f168201915b5050505050905090565b600081600073ffffffffffffffffffffffffffffffffffffffff166008600083815260200190815260200160002060009054906101000a900473ffffffffffffffffffffffffffffffffffffffff1673ffffffffffffffffffffffffffffffffffffffff161415610654576040517f08c379a000000000000000000000000000000000000000000000000000000000815260040161064b90612b08565b60405180910390fd5b6009600084815260200190815260200160002060009054906101000a900473ffffffffffffffffffffffffffffffffffffffff16915050919050565b80600073ffffffffffffffffffffffffffffffffffffffff166008600083815260200190815260200160002060009054906101000a900473ffffffffffffffffffffffffffffffffffffffff1673ffffffffffffffffffffffffffffffffffffffff161415610734576040517f08c379a000000000000000000000000000000000000000000000000000000000815260040161072b90612b08565b60405180910390fd5b8160003373ffffffffffffffffffffffffffffffffffffffff166008600084815260200190815260200160002060009054906101000a900473ffffffffffffffffffffffffffffffffffffffff1673ffffffffffffffffffffffffffffffffffffffff1614905060003373ffffffffffffffffffffffffffffffffffffffff166009600085815260200190815260200160002060009054906101000a900473ffffffffffffffffffffffffffffffffffffffff1673ffffffffffffffffffffffffffffffffffffffff16149050600060011515600a60006008600088815260200190815260200160002060009054906101000a900473ffffffffffffffffffffffffffffffffffffffff1673ffffffffffffffffffffffffffffffffffffffff1673ffffffffffffffffffffffffffffffffffffffff16815260200190815260200160002060003373ffffffffffffffffffffffffffffffffffffffff1673ffffffffffffffffffffffffffffffffffffffff16815260200190815260200160002060009054906101000a900460ff16151514905082806108d25750815b806108da5750805b610919576040517f08c379a000000000000000000000000000000000000000000000000000000000815260040161091090612a28565b60405180910390fd5b866009600088815260200190815260200160002060006101000a81548173ffffffffffffffffffffffffffffffffffffffff021916908373ffffffffffffffffffffffffffffffffffffffff160217905550858773ffffffffffffffffffffffffffffffffffffffff166008600089815260200190815260200160002060009054906101000a900473ffffffffffffffffffffffffffffffffffffffff1673ffffffffffffffffffffffffffffffffffffffff167f8c5be1e5ebec7d5bd14f71427d1e84f3dd0314c0f7b2291e5b200ac8c7c3b92560405160405180910390a450505050505050565b60045481565b8060003373ffffffffffffffffffffffffffffffffffffffff166008600084815260200190815260200160002060009054906101000a900473ffffffffffffffffffffffffffffffffffffffff1673ffffffffffffffffffffffffffffffffffffffff1614905060003373ffffffffffffffffffffffffffffffffffffffff166009600085815260200190815260200160002060009054906101000a900473ffffffffffffffffffffffffffffffffffffffff1673ffffffffffffffffffffffffffffffffffffffff16149050600060011515600a60006008600088815260200190815260200160002060009054906101000a900473ffffffffffffffffffffffffffffffffffffffff1673ffffffffffffffffffffffffffffffffffffffff1673ffffffffffffffffffffffffffffffffffffffff16815260200190815260200160002060003373ffffffffffffffffffffffffffffffffffffffff1673ffffffffffffffffffffffffffffffffffffffff16815260200190815260200160002060009054906101000a900460ff1615151490508280610ba65750815b80610bae5750805b610bed576040517f08c379a0000000000000000000000000000000000000000000000000000000008152600401610be490612a28565b60405180910390fd5b600073ffffffffffffffffffffffffffffffffffffffff168773ffffffffffffffffffffffffffffffffffffffff161415610c5d576040517f08c379a0000000000000000000000000000000000000000000000000000000008152600401610c5490612ae8565b60405180910390fd5b600073ffffffffffffffffffffffffffffffffffffffff168673ffffffffffffffffffffffffffffffffffffffff161415610ccd576040517f08c379a0000000000000000000000000000000000000000000000000000000008152600401610cc490612aa8565b60405180910390fd5b6001600760008973ffffffffffffffffffffffffffffffffffffffff1673ffffffffffffffffffffffffffffffffffffffff1681526020019081526020016000206000828254610d1d9190612cc7565b925050819055506001600760008873ffffffffffffffffffffffffffffffffffffffff1673ffffffffffffffffffffffffffffffffffffffff1681526020019081526020016000206000828254610d749190612c40565b92505081905550856008600087815260200190815260200160002060006101000a81548173ffffffffffffffffffffffffffffffffffffffff021916908373ffffffffffffffffffffffffffffffffffffffff1602179055506009600086815260200190815260200160002060006101000a81549073ffffffffffffffffffffffffffffffffffffffff0219169055848673ffffffffffffffffffffffffffffffffffffffff168873ffffffffffffffffffffffffffffffffffffffff167fddf252ad1be2c89b69c2b068fc378daa952ba7f163c4a11628f55a4df523b3ef60405160405180910390a450505050505050565b80600073ffffffffffffffffffffffffffffffffffffffff166008600083815260200190815260200160002060009054906101000a900473ffffffffffffffffffffffffffffffffffffffff1673ffffffffffffffffffffffffffffffffffffffff161415610f0b576040517f08c379a0000000000000000000000000000000000000000000000000000000008152600401610f0290612b08565b60405180910390fd5b8160003373ffffffffffffffffffffffffffffffffffffffff166008600084815260200190815260200160002060009054906101000a900473ffffffffffffffffffffffffffffffffffffffff1673ffffffffffffffffffffffffffffffffffffffff1614905060003373ffffffffffffffffffffffffffffffffffffffff166009600085815260200190815260200160002060009054906101000a900473ffffffffffffffffffffffffffffffffffffffff1673ffffffffffffffffffffffffffffffffffffffff16149050600060011515600a60006008600088815260200190815260200160002060009054906101000a900473ffffffffffffffffffffffffffffffffffffffff1673ffffffffffffffffffffffffffffffffffffffff1673ffffffffffffffffffffffffffffffffffffffff16815260200190815260200160002060003373ffffffffffffffffffffffffffffffffffffffff1673ffffffffffffffffffffffffffffffffffffffff16815260200190815260200160002060009054906101000a900460ff16151514905082806110a95750815b806110b15750805b6110f0576040517f08c379a00000000000000000000000000000000000000000000000000000000081526004016110e790612a28565b60405180910390fd5b600073ffffffffffffffffffffffffffffffffffffffff168873ffffffffffffffffffffffffffffffffffffffff161415611160576040517f08c379a000000000000000000000000000000000000000000000000000000000815260040161115790612b88565b60405180910390fd5b600073ffffffffffffffffffffffffffffffffffffffff168773ffffffffffffffffffffffffffffffffffffffff1614156111d0576040517f08c379a00000000000000000000000000000000000000000000000000000000081526004016111c790612ac8565b60405180910390fd5b6001600760008a73ffffffffffffffffffffffffffffffffffffffff1673ffffffffffffffffffffffffffffffffffffffff16815260200190815260200160002060008282546112209190612cc7565b925050819055506001600760008973ffffffffffffffffffffffffffffffffffffffff1673ffffffffffffffffffffffffffffffffffffffff16815260200190815260200160002060008282546112779190612c40565b92505081905550866008600088815260200190815260200160002060006101000a81548173ffffffffffffffffffffffffffffffffffffffff021916908373ffffffffffffffffffffffffffffffffffffffff1602179055506009600087815260200190815260200160002060006101000a81549073ffffffffffffffffffffffffffffffffffffffff0219169055858773ffffffffffffffffffffffffffffffffffffffff168973ffffffffffffffffffffffffffffffffffffffff167fddf252ad1be2c89b69c2b068fc378daa952ba7f163c4a11628f55a4df523b3ef60405160405180910390a45050505050505050565b80600073ffffffffffffffffffffffffffffffffffffffff166008600083815260200190815260200160002060009054906101000a900473ffffffffffffffffffffffffffffffffffffffff1673ffffffffffffffffffffffffffffffffffffffff16141561140f576040517f08c379a000000000000000000000000000000000000000000000000000000000815260040161140690612b08565b60405180910390fd5b816008600082815260200190815260200160002060009054906101000a900473ffffffffffffffffffffffffffffffffffffffff1673ffffffffffffffffffffffffffffffffffffffff163373ffffffffffffffffffffffffffffffffffffffff16146114b1576040517f08c379a00000000000000000000000000000000000000000000000000000000081526004016114a890612a68565b60405180910390fd5b6009600084815260200190815260200160002060006101000a81549073ffffffffffffffffffffffffffffffffffffffff02191690556001600760006008600087815260200190815260200160002060009054906101000a900473ffffffffffffffffffffffffffffffffffffffff1673ffffffffffffffffffffffffffffffffffffffff1673ffffffffffffffffffffffffffffffffffffffff168152602001908152602001600020600082825461156a9190612cc7565b925050819055506008600084815260200190815260200160002060006101000a81549073ffffffffffffffffffffffffffffffffffffffff021916905582600073ffffffffffffffffffffffffffffffffffffffff163373ffffffffffffffffffffffffffffffffffffffff167fddf252ad1be2c89b69c2b068fc378daa952ba7f163c4a11628f55a4df523b3ef60405160405180910390a4505050565b6116106120ab565b73ffffffffffffffffffffffffffffffffffffffff1661162e611b5e565b73ffffffffffffffffffffffffffffffffffffffff1614611684576040517f08c379a000000000000000000000000000000000000000000000000000000000815260040161167b90612b68565b60405180910390fd5b806006908051906020019061169a9291906122d8565b5050565b60008073ffffffffffffffffffffffffffffffffffffffff166008600084815260200190815260200160002060009054906101000a900473ffffffffffffffffffffffffffffffffffffffff1673ffffffffffffffffffffffffffffffffffffffff161415611742576040517f08c379a000000000000000000000000000000000000000000000000000000000815260040161173990612b28565b60405180910390fd5b6008600083815260200190815260200160002060009054906101000a900473ffffffffffffffffffffffffffffffffffffffff169050919050565b6117856120ab565b73ffffffffffffffffffffffffffffffffffffffff166117a3611b5e565b73ffffffffffffffffffffffffffffffffffffffff16146117f9576040517f08c379a00000000000000000000000000000000000000000000000000000000081526004016117f090612b68565b60405180910390fd5b6005546004541061183f576040517f08c379a000000000000000000000000000000000000000000000000000000000815260040161183690612a88565b60405180910390fd5b600073ffffffffffffffffffffffffffffffffffffffff168173ffffffffffffffffffffffffffffffffffffffff1614156118af576040517f08c379a00000000000000000000000000000000000000000000000000000000081526004016118a690612b48565b60405180910390fd5b600060016004546118c09190612c40565b9050816008600083815260200190815260200160002060006101000a81548173ffffffffffffffffffffffffffffffffffffffff021916908373ffffffffffffffffffffffffffffffffffffffff1602179055506001600760008473ffffffffffffffffffffffffffffffffffffffff1673ffffffffffffffffffffffffffffffffffffffff16815260200190815260200160002060008282546119649190612c40565b9250508190555060016003600082825461197e9190612c40565b925050819055506001600460008282546119989190612c40565b92505081905550808273ffffffffffffffffffffffffffffffffffffffff16600073ffffffffffffffffffffffffffffffffffffffff167fddf252ad1be2c89b69c2b068fc378daa952ba7f163c4a11628f55a4df523b3ef60405160405180910390a45050565b60068054611a0c90612db1565b80601f0160208091040260200160405190810160405280929190818152602001828054611a3890612db1565b8015611a855780601f10611a5a57610100808354040283529160200191611a85565b820191906000526020600020905b815481529060010190602001808311611a6857829003601f168201915b505050505081565b6000600760008373ffffffffffffffffffffffffffffffffffffffff1673ffffffffffffffffffffffffffffffffffffffff168152602001908152602001600020549050919050565b611ade6120ab565b73ffffffffffffffffffffffffffffffffffffffff16611afc611b5e565b73ffffffffffffffffffffffffffffffffffffffff1614611b52576040517f08c379a0000000000000000000000000000000000000000000000000000000008152600401611b4990612b68565b60405180910390fd5b611b5c60006120b3565b565b60008060009054906101000a900473ffffffffffffffffffffffffffffffffffffffff16905090565b60035481565b606060028054611b9c90612db1565b80601f0160208091040260200160405190810160405280929190818152602001828054611bc890612db1565b8015611c155780601f10611bea57610100808354040283529160200191611c15565b820191906000526020600020905b815481529060010190602001808311611bf857829003601f168201915b5050505050905090565b8173ffffffffffffffffffffffffffffffffffffffff163373ffffffffffffffffffffffffffffffffffffffff161415611c8e576040517f08c379a0000000000000000000000000000000000000000000000000000000008152600401611c8590612a48565b60405180910390fd5b80600a60003373ffffffffffffffffffffffffffffffffffffffff1673ffffffffffffffffffffffffffffffffffffffff16815260200190815260200160002060008473ffffffffffffffffffffffffffffffffffffffff1673ffffffffffffffffffffffffffffffffffffffff16815260200190815260200160002060006101000a81548160ff0219169083151502179055508173ffffffffffffffffffffffffffffffffffffffff163373ffffffffffffffffffffffffffffffffffffffff167f17307eab39ab6107e8899845ad3d59bd9653f200f220920489ca2b5937696c3183604051611d7f91906129cb565b60405180910390a35050565b5050505050565b606081600073ffffffffffffffffffffffffffffffffffffffff166008600083815260200190815260200160002060009054906101000a900473ffffffffffffffffffffffffffffffffffffffff1673ffffffffffffffffffffffffffffffffffffffff161415611e38576040517f08c379a0000000000000000000000000000000000000000000000000000000008152600401611e2f90612b08565b60405180910390fd5b600060068054611e4790612db1565b80601f0160208091040260200160405190810160405280929190818152602001828054611e7390612db1565b8015611ec05780601f10611e9557610100808354040283529160200191611ec0565b820191906000526020600020905b815481529060010190602001808311611ea357829003601f168201915b505050505090506000815111611ee55760405180602001604052806000815250611f10565b80611eef85612177565b604051602001611f00929190612981565b6040516020818303038152906040525b92505050919050565b60055481565b6000600a60008473ffffffffffffffffffffffffffffffffffffffff1673ffffffffffffffffffffffffffffffffffffffff16815260200190815260200160002060008373ffffffffffffffffffffffffffffffffffffffff1673ffffffffffffffffffffffffffffffffffffffff16815260200190815260200160002060009054906101000a900460ff16905092915050565b611fbb6120ab565b73ffffffffffffffffffffffffffffffffffffffff16611fd9611b5e565b73ffffffffffffffffffffffffffffffffffffffff161461202f576040517f08c379a000000000000000000000000000000000000000000000000000000000815260040161202690612b68565b60405180910390fd5b600073ffffffffffffffffffffffffffffffffffffffff168173ffffffffffffffffffffffffffffffffffffffff16141561209f576040517f08c379a000000000000000000000000000000000000000000000000000000000815260040161209690612a08565b60405180910390fd5b6120a8816120b3565b50565b600033905090565b60008060009054906101000a900473ffffffffffffffffffffffffffffffffffffffff169050816000806101000a81548173ffffffffffffffffffffffffffffffffffffffff021916908373ffffffffffffffffffffffffffffffffffffffff1602179055508173ffffffffffffffffffffffffffffffffffffffff168173ffffffffffffffffffffffffffffffffffffffff167f8be0079c531659141344cd1fd0a4f28419497f9722a3daafe3b4186f6b6457e060405160405180910390a35050565b606060008214156121bf576040518060400160405280600181526020017f300000000000000000000000000000000000000000000000000000000000000081525090506122d3565b600082905060005b600082146121f15780806121da90612e14565b915050600a826121ea9190612c96565b91506121c7565b60008167ffffffffffffffff81111561220d5761220c612f4a565b5b6040519080825280601f01601f19166020018201604052801561223f5781602001600182028036833780820191505090505b5090505b600085146122cc576001826122589190612cc7565b9150600a856122679190612e5d565b60306122739190612c40565b60f81b81838151811061228957612288612f1b565b5b60200101907effffffffffffffffffffffffffffffffffffffffffffffffffffffffffffff1916908160001a905350600a856122c59190612c96565b9450612243565b8093505050505b919050565b8280546122e490612db1565b90600052602060002090601f016020900481019282612306576000855561234d565b82601f1061231f57805160ff191683800117855561234d565b8280016001018555821561234d579182015b8281111561234c578251825591602001919060010190612331565b5b50905061235a919061235e565b5090565b5b8082111561237757600081600090555060010161235f565b5090565b600061238e61238984612be8565b612bc3565b9050828152602081018484840111156123aa576123a9612f88565b5b6123b5848285612d6f565b509392505050565b6000813590506123cc81613232565b92915050565b6000813590506123e181613249565b92915050565b6000813590506123f681613260565b92915050565b60008083601f84011261241257612411612f7e565b5b8235905067ffffffffffffffff81111561242f5761242e612f79565b5b60208301915083600182028301111561244b5761244a612f83565b5b9250929050565b600082601f83011261246757612466612f7e565b5b813561247784826020860161237b565b91505092915050565b60008135905061248f81613277565b92915050565b6000602082840312156124ab576124aa612f92565b5b60006124b9848285016123bd565b91505092915050565b600080604083850312156124d9576124d8612f92565b5b60006124e7858286016123bd565b92505060206124f8858286016123bd565b9150509250929050565b60008060006060848603121561251b5761251a612f92565b5b6000612529868287016123bd565b935050602061253a868287016123bd565b925050604061254b86828701612480565b9150509250925092565b60008060008060006080868803121561257157612570612f92565b5b600061257f888289016123bd565b9550506020612590888289016123bd565b94505060406125a188828901612480565b935050606086013567ffffffffffffffff8111156125c2576125c1612f8d565b5b6125ce888289016123fc565b92509250509295509295909350565b600080604083850312156125f4576125f3612f92565b5b6000612602858286016123bd565b9250506020612613858286016123d2565b9150509250929050565b6000806040838503121561263457612633612f92565b5b6000612642858286016123bd565b925050602061265385828601612480565b9150509250929050565b60006020828403121561267357612672612f92565b5b6000612681848285016123e7565b91505092915050565b6000602082840312156126a05761269f612f92565b5b600082013567ffffffffffffffff8111156126be576126bd612f8d565b5b6126ca84828501612452565b91505092915050565b6000602082840312156126e9576126e8612f92565b5b60006126f784828501612480565b91505092915050565b61270981612cfb565b82525050565b61271881612d0d565b82525050565b600061272982612c19565b6127338185612c24565b9350612743818560208601612d7e565b61274c81612f97565b840191505092915050565b600061276282612c19565b61276c8185612c35565b935061277c818560208601612d7e565b80840191505092915050565b6000612795602683612c24565b91506127a082612fa8565b604082019050919050565b60006127b8602c83612c24565b91506127c382612ff7565b604082019050919050565b60006127db601b83612c24565b91506127e682613046565b602082019050919050565b60006127fe601283612c24565b91506128098261306f565b602082019050919050565b6000612821601c83612c24565b915061282c82613098565b602082019050919050565b6000612844601983612c24565b915061284f826130c1565b602082019050919050565b6000612867601283612c24565b9150612872826130ea565b602082019050919050565b600061288a601b83612c24565b915061289582613113565b602082019050919050565b60006128ad601783612c24565b91506128b88261313c565b602082019050919050565b60006128d0600583612c35565b91506128db82613165565b600582019050919050565b60006128f3600f83612c24565b91506128fe8261318e565b602082019050919050565b6000612916601b83612c24565b9150612921826131b7565b602082019050919050565b6000612939602083612c24565b9150612944826131e0565b602082019050919050565b600061295c601483612c24565b915061296782613209565b602082019050919050565b61297b81612d65565b82525050565b600061298d8285612757565b91506129998284612757565b91506129a4826128c3565b91508190509392505050565b60006020820190506129c56000830184612700565b92915050565b60006020820190506129e0600083018461270f565b92915050565b60006020820190508181036000830152612a00818461271e565b905092915050565b60006020820190508181036000830152612a2181612788565b9050919050565b60006020820190508181036000830152612a41816127ab565b9050919050565b60006020820190508181036000830152612a61816127ce565b9050919050565b60006020820190508181036000830152612a81816127f1565b9050919050565b60006020820190508181036000830152612aa181612814565b9050919050565b60006020820190508181036000830152612ac181612837565b9050919050565b60006020820190508181036000830152612ae18161285a565b9050919050565b60006020820190508181036000830152612b018161287d565b9050919050565b60006020820190508181036000830152612b21816128a0565b9050919050565b60006020820190508181036000830152612b41816128e6565b9050919050565b60006020820190508181036000830152612b6181612909565b9050919050565b60006020820190508181036000830152612b818161292c565b9050919050565b60006020820190508181036000830152612ba18161294f565b9050919050565b6000602082019050612bbd6000830184612972565b92915050565b6000612bcd612bde565b9050612bd98282612de3565b919050565b6000604051905090565b600067ffffffffffffffff821115612c0357612c02612f4a565b5b612c0c82612f97565b9050602081019050919050565b600081519050919050565b600082825260208201905092915050565b600081905092915050565b6000612c4b82612d65565b9150612c5683612d65565b9250827fffffffffffffffffffffffffffffffffffffffffffffffffffffffffffffffff03821115612c8b57612c8a612e8e565b5b828201905092915050565b6000612ca182612d65565b9150612cac83612d65565b925082612cbc57612cbb612ebd565b5b828204905092915050565b6000612cd282612d65565b9150612cdd83612d65565b925082821015612cf057612cef612e8e565b5b828203905092915050565b6000612d0682612d45565b9050919050565b60008115159050919050565b60007fffffffff0000000000000000000000000000000000000000000000000000000082169050919050565b600073ffffffffffffffffffffffffffffffffffffffff82169050919050565b6000819050919050565b82818337600083830152505050565b60005b83811015612d9c578082015181840152602081019050612d81565b83811115612dab576000848401525b50505050565b60006002820490506001821680612dc957607f821691505b60208210811415612ddd57612ddc612eec565b5b50919050565b612dec82612f97565b810181811067ffffffffffffffff82111715612e0b57612e0a612f4a565b5b80604052505050565b6000612e1f82612d65565b91507fffffffffffffffffffffffffffffffffffffffffffffffffffffffffffffffff821415612e5257612e51612e8e565b5b600182019050919050565b6000612e6882612d65565b9150612e7383612d65565b925082612e8357612e82612ebd565b5b828206905092915050565b7f4e487b7100000000000000000000000000000000000000000000000000000000600052601160045260246000fd5b7f4e487b7100000000000000000000000000000000000000000000000000000000600052601260045260246000fd5b7f4e487b7100000000000000000000000000000000000000000000000000000000600052602260045260246000fd5b7f4e487b7100000000000000000000000000000000000000000000000000000000600052603260045260246000fd5b7f4e487b7100000000000000000000000000000000000000000000000000000000600052604160045260246000fd5b600080fd5b600080fd5b600080fd5b600080fd5b600080fd5b600080fd5b6000601f19601f8301169050919050565b7f4f776e61626c653a206e6577206f776e657220697320746865207a65726f206160008201527f6464726573730000000000000000000000000000000000000000000000000000602082015250565b7f63616c6c6572206e656974686572206f776e65722c20617070726f7665642c2060008201527f6e6f72206f70657261746f720000000000000000000000000000000000000000602082015250565b7f6f70657261746f722063616e6e6f7420617070726f766520616c6c0000000000600082015250565b7f746f6b656e206964206e6f74206f776e65640000000000000000000000000000600082015250565b7f63616e6e6f74206d696e742061626f7665206d617820737570706c7900000000600082015250565b7f746f2063616e6e6f74206265207a65726f206164647265737300000000000000600082015250565b7f696e76616c696420746f20616464726573730000000000000000000000000000600082015250565b7f66726f6d2063616e6e6f74206265207a65726f20616464726573730000000000600082015250565b7f746f6b656e20696420646f6573206e6f74206578697374000000000000000000600082015250565b7f2e6a736f6e000000000000000000000000000000000000000000000000000000600082015250565b7f746f6b656e206e6f7420666f756e640000000000000000000000000000000000600082015250565b7f63616e6e6f74206d696e7420746f207a65726f20616464726573730000000000600082015250565b7f4f776e61626c653a2063616c6c6572206973206e6f7420746865206f776e6572600082015250565b7f696e76616c69642066726f6d2061646472657373000000000000000000000000600082015250565b61323b81612cfb565b811461324657600080fd5b50565b61325281612d0d565b811461325d57600080fd5b50565b61326981612d19565b811461327457600080fd5b50565b61328081612d65565b811461328b57600080fd5b5056fea2646970667358221220bacedc7ae1989d7366d4029e66dedc67e7ff45a878a065d868d494015594169d64736f6c63430008070033",
  "immutableReferences": {},
  "source": "// SPDX-License-Identifier: UNLICENSED\npragma solidity ^0.8.0;\n\nimport \"@openzeppelin/contracts/access/Ownable.sol\";\nimport \"@openzeppelin/contracts/token/ERC721/IERC721.sol\";\nimport \"@openzeppelin/contracts/token/ERC721/IERC721Receiver.sol\";\nimport \"@openzeppelin/contracts/token/ERC721/extensions/IERC721Metadata.sol\";\nimport \"@openzeppelin/contracts/utils/Strings.sol\";\nimport \"@openzeppelin/contracts/utils/Address.sol\";\n\n/// @title A custom ERC721 contract\n/// @author Craig Branscom\n/// @notice Contract is Ownable and implements the ERC721 spec with Metadata extension.\ncontract CustomERC721 is Ownable, IERC721, IERC721Metadata {\n    using Address for address;\n    using Strings for uint256;\n\n    string private _tokenName;\n    string private _tokenSymbol;\n\n    uint256 public circulatingSupply; //count of existing tokens (reduced on burn)\n    uint256 public totalSupply; //count of all tokens that have existed (including burned)\n    uint256 public maxSupply; //supply cap of token\n\n    string public baseURI; //base URI + tokenId returns metadata or metadata link (URL, IPFS, etc.)\n\n    mapping(address => uint256) private _balances; //tracks total token count owned per address\n    mapping(uint256 => address) private _owners; //tracks ownership of each token\n    mapping(uint256 => address) private _approvals; //approved addresses can transfer token on behalf of token owner\n    mapping(address => mapping(address => bool)) private _operators; //approved operators can transfer any token owned by owner (_operators[owner][operator])\n\n    constructor(string memory name_, string memory symbol_, uint256 maxSupply_) {\n        _tokenName = name_;\n        _tokenSymbol = symbol_;\n        maxSupply = maxSupply_;\n    }\n\n    //===== Custom Modifiers =====\n\n    /// @dev reverts if token id does not exist\n    modifier ifExists(uint256 tokenId) {\n        require(_owners[tokenId] != address(0x0), \"token id does not exist\");\n        _;\n    }\n\n    /// @dev reverts if token id is not owned by msg.sender\n    modifier onlyTokenOwner(uint256 tokenId) {\n        require(msg.sender == _owners[tokenId], \"token id not owned\");\n        _;\n    }\n\n    /// @dev reverts if msg.sender is not owner, approved, or operator\n    modifier onlyAuthorized(uint256 tokenId) {\n        bool isOwner = _owners[tokenId] == msg.sender;\n        bool isApproved = _approvals[tokenId] == msg.sender;\n        bool isOperator = _operators[_owners[tokenId]][msg.sender] == true;\n        require(isOwner || isApproved || isOperator, \"caller neither owner, approved, nor operator\");\n        _;\n    }\n\n    /// @dev reverts if contract can no longer mint\n    modifier canMint() {\n        require(totalSupply < maxSupply, \"cannot mint above max supply\");\n        _;\n    }\n\n    //===== Custom Functions =====\n\n    /// @dev mint new token id to address\n    /// @param to address receiving new token\n    function mint(address to) public onlyOwner canMint {\n        //validate\n        require(to != address(0x0), \"cannot mint to zero address\");\n\n        //calculate new token id\n        //TODO: should start at id 0 or 1?\n        uint256 newTokenId = totalSupply + 1;\n\n        //update ownership\n        _owners[newTokenId] = to;\n\n        //update balance\n        _balances[to] += 1;\n\n        //update supply counts\n        circulatingSupply += 1;\n        totalSupply += 1;\n\n        //minting transfers from the zero address to the recipient\n        emit Transfer(address(0x0), to, newTokenId);\n    }\n\n    /// @dev removes token id from existence\n    /// @param tokenId id of token to burn\n    function burn(uint256 tokenId) public ifExists(tokenId) onlyTokenOwner(tokenId) {\n        //clear approvals\n        delete _approvals[tokenId];\n\n        //TODO: does this need to emit approval event?\n        // emit Approval(_owners[tokenId], address(0x0), tokenId);\n\n        //TODO: should operator be allowed to burn?\n\n        //update balance\n        _balances[_owners[tokenId]] -= 1;\n\n        //update ownership\n        delete _owners[tokenId];\n\n        //burning transfers from owner to zero address\n        emit Transfer(msg.sender, address(0x0), tokenId);\n    }\n\n    /// @dev update base uri of contract\n    /// @param newBaseURI new base uri to set for contract\n    function setBaseURI(string memory newBaseURI) public onlyOwner {\n        baseURI = newBaseURI;\n    }\n\n    //===== ERC721 =====\n\n    /// @dev gets balance of tokens owned by owner address\n    /// @param owner address of owner\n    /// @return balance of tokens\n    function balanceOf(address owner) public view override returns (uint256 balance) {\n        return _balances[owner];\n    }\n\n    /// @dev gets owner address of token id\n    /// @param tokenId id of token\n    /// @return owner of token id\n    function ownerOf(uint256 tokenId) public view override returns (address owner) {\n        //validate\n        require(_owners[tokenId] != address(0x0), \"token not found\");\n\n        return _owners[tokenId];\n    }\n\n    /// @dev safely transfer token id to recipient address\n    /// @param from address that currently owns token id\n    /// @param to address to receive token id\n    /// @param tokenId id of token to safely transfer\n    function safeTransferFrom(address from, address to, uint256 tokenId) public override ifExists(tokenId) onlyAuthorized(tokenId) {\n        require(from != address(0x0), \"invalid from address\");\n        require(to != address(0x0), \"invalid to address\");\n\n        //update balances\n        _balances[from] -= 1;\n        _balances[to] += 1;\n\n        //update ownership\n        _owners[tokenId] = to;\n\n        //clear previous approval\n        delete _approvals[tokenId];\n\n        //TODO: check ERC721Receivable\n        // if (to.isContract()) {\n        //     try IERC721Receiver(to).onERC721Received(_msgSender(), from, tokenId, bytes(\"\")) returns (bytes4 retval) {\n        //         return retval == IERC721Receiver.onERC721Received.selector;\n        //     } catch (bytes memory reason) {\n        //         if (reason.length == 0) {\n        //             revert(\"ERC721: transfer to non ERC721Receiver implementer\");\n        //         } else {\n        //             assembly {\n        //                 revert(add(32, reason), mload(reason))\n        //             }\n        //         }\n        //     }\n        // } else {\n        //     return true;\n        // }\n\n        emit Transfer(from, to, tokenId);\n    }\n\n    /// @dev transfers token to recipient\n    /// @param from address that currently owns token id\n    /// @param to address to receive token id\n    /// @param tokenId id of token to transfer\n    function transferFrom(address from, address to, uint256 tokenId) public override onlyAuthorized(tokenId) {\n        //validate\n        require(from != address(0x0), \"from cannot be zero address\");\n        require(to != address(0x0), \"to cannot be zero address\");\n\n        //update balances\n        _balances[from] -= 1;\n        _balances[to] += 1;\n\n        //update ownership\n        _owners[tokenId] = to;\n\n        //clear previous approval\n        delete _approvals[tokenId];\n\n        emit Transfer(from, to, tokenId);\n    }\n\n    /// @dev approve an address to transfer token id on behalf of owner\n    /// @param to address to approve\n    /// @param tokenId token id to approve\n    function approve(address to, uint256 tokenId) public override ifExists(tokenId) onlyAuthorized(tokenId) {\n        //set new approval\n        _approvals[tokenId] = to;\n\n        emit Approval(_owners[tokenId], to, tokenId);\n    }\n\n    /// @dev get address approved for token id (if any)\n    /// @param tokenId token id to check\n    /// @return operator approved for token id\n    function getApproved(uint256 tokenId) public override view ifExists(tokenId) returns (address operator) {\n        return _approvals[tokenId];\n    }\n\n    /// @dev sets approval for all tokens owned by caller\n    /// @param operator approval to update\n    /// @param approved approval status\n    function setApprovalForAll(address operator, bool approved) public override {\n        //validate\n        require(msg.sender != operator, \"operator cannot approve all\");\n\n        //update operator status for calling address\n        _operators[msg.sender][operator] = approved;\n\n        emit ApprovalForAll(msg.sender, operator, approved);\n    }\n\n    /// @dev gets approval status for operator on owner address\n    /// @param owner address owning tokens\n    /// @param operator address with approval status\n    /// @return approval status\n    function isApprovedForAll(address owner, address operator) public override view returns (bool) {\n        return _operators[owner][operator];\n    }\n\n    /// @dev safely trasnfer token to recipient with calldata\n    /// @param from address that currently owns token id\n    /// @param to address to receive token id\n    /// @param tokenId id of token to safely transfer\n    /// @param data calldata\n    function safeTransferFrom(address from, address to, uint256 tokenId, bytes calldata data) public override {\n        \n        // require(_checkOnERC721Received(from, to, tokenId, _data), \"ERC721: transfer to non ERC721Receiver implementer\");\n    }\n\n    //===== ERC721 Metadata Extension =====\n\n    /// @dev gets token name of contract\n    /// @return token name\n    function name() public override view returns (string memory) {\n        return _tokenName;\n    }\n\n    /// @dev gets token symbol of contract\n    /// @return token symbol\n    function symbol() public override view returns (string memory) {\n        return _tokenSymbol;    \n    }\n\n    /// @dev gets token uri for token id\n    /// @param tokenId id of token\n    /// @return token uri\n    function tokenURI(uint256 tokenId) public view override ifExists(tokenId) returns (string memory) {\n        string memory temp = baseURI;\n        return bytes(temp).length > 0 ? string(abi.encodePacked(temp, tokenId.toString(), \".json\")) : \"\";\n    }\n\n    //===== ERC165 =====\n\n    /// @dev returns true if this contract supports interface id\n    /// @param interfaceId id of interface to check\n    /// @return interface support status\n    function supportsInterface(bytes4 interfaceId) public view virtual override(IERC165) returns (bool) {\n        return\n            interfaceId == type(IERC721).interfaceId ||\n            interfaceId == type(IERC721Metadata).interfaceId;\n    }\n\n}",
  "sourcePath": "/Users/craig/GitHub/ethereum-contract-template/contracts/CustomERC721.sol",
  "compiler": {
    "name": "solc",
    "version": "0.8.7+commit.e28d00a7.Emscripten.clang"
  },
  "schemaVersion": "3.4.1",
  "updatedAt": "2021-09-01T21:13:54.784Z",
  "devdoc": {
    "author": "Craig Branscom",
    "kind": "dev",
    "methods": {
      "approve(address,uint256)": {
        "details": "approve an address to transfer token id on behalf of owner",
        "params": {
          "to": "address to approve",
          "tokenId": "token id to approve"
        }
      },
      "balanceOf(address)": {
        "details": "gets balance of tokens owned by owner address",
        "params": {
          "owner": "address of owner"
        },
        "returns": {
          "balance": "of tokens"
        }
      },
      "burn(uint256)": {
        "details": "removes token id from existence",
        "params": {
          "tokenId": "id of token to burn"
        }
      },
      "getApproved(uint256)": {
        "details": "get address approved for token id (if any)",
        "params": {
          "tokenId": "token id to check"
        },
        "returns": {
          "operator": "approved for token id"
        }
      },
      "isApprovedForAll(address,address)": {
        "details": "gets approval status for operator on owner address",
        "params": {
          "operator": "address with approval status",
          "owner": "address owning tokens"
        },
        "returns": {
          "_0": "approval status"
        }
      },
      "mint(address)": {
        "details": "mint new token id to address",
        "params": {
          "to": "address receiving new token"
        }
      },
      "name()": {
        "details": "gets token name of contract",
        "returns": {
          "_0": "token name"
        }
      },
      "owner()": {
        "details": "Returns the address of the current owner."
      },
      "ownerOf(uint256)": {
        "details": "gets owner address of token id",
        "params": {
          "tokenId": "id of token"
        },
        "returns": {
          "owner": "of token id"
        }
      },
      "renounceOwnership()": {
        "details": "Leaves the contract without owner. It will not be possible to call `onlyOwner` functions anymore. Can only be called by the current owner. NOTE: Renouncing ownership will leave the contract without an owner, thereby removing any functionality that is only available to the owner."
      },
      "safeTransferFrom(address,address,uint256)": {
        "details": "safely transfer token id to recipient address",
        "params": {
          "from": "address that currently owns token id",
          "to": "address to receive token id",
          "tokenId": "id of token to safely transfer"
        }
      },
      "safeTransferFrom(address,address,uint256,bytes)": {
        "details": "safely trasnfer token to recipient with calldata",
        "params": {
          "data": "calldata",
          "from": "address that currently owns token id",
          "to": "address to receive token id",
          "tokenId": "id of token to safely transfer"
        }
      },
      "setApprovalForAll(address,bool)": {
        "details": "sets approval for all tokens owned by caller",
        "params": {
          "approved": "approval status",
          "operator": "approval to update"
        }
      },
      "setBaseURI(string)": {
        "details": "update base uri of contract",
        "params": {
          "newBaseURI": "new base uri to set for contract"
        }
      },
      "supportsInterface(bytes4)": {
        "details": "returns true if this contract supports interface id",
        "params": {
          "interfaceId": "id of interface to check"
        },
        "returns": {
          "_0": "interface support status"
        }
      },
      "symbol()": {
        "details": "gets token symbol of contract",
        "returns": {
          "_0": "token symbol"
        }
      },
      "tokenURI(uint256)": {
        "details": "gets token uri for token id",
        "params": {
          "tokenId": "id of token"
        },
        "returns": {
          "_0": "token uri"
        }
      },
      "transferFrom(address,address,uint256)": {
        "details": "transfers token to recipient",
        "params": {
          "from": "address that currently owns token id",
          "to": "address to receive token id",
          "tokenId": "id of token to transfer"
        }
      },
      "transferOwnership(address)": {
        "details": "Transfers ownership of the contract to a new account (`newOwner`). Can only be called by the current owner."
      }
    },
    "title": "A custom ERC721 contract",
    "version": 1
  },
  "userdoc": {
    "kind": "user",
    "methods": {},
    "notice": "Contract is Ownable and implements the ERC721 spec with Metadata extension.",
    "version": 1
  }
}